:1000000000800020BD01000039530200F1520200BF
:10001000F1520200F1520200F1520200F1520200CC
:10002000F1520200F1520200F15202003953020073
:1000300039530200F152020039530200E15202002A
:100040003953020039530200395302003953020078
:100050003953020039530200395302003953020068
:100060003953020039530200395302003953020058
:100070003953020039530200395302003953020048
:100080003953020039530200395302003953020038
:100090003953020039530200395302003953020028
:1000A0003953020039530200395302003953020018
:1000B0003953020039530200395302003953020008
:1000C00039530200395302003953020039530200F8
:1000D00039530200395302003953020039530200E8
:1000E00039530200395302003953020039530200D8
:1000F000395302003D700200395302009977020023
:1001000039530200157D02003953020039530200B1
:1001100039530200395302003953020039530200A7
:100120003953020039530200395302003953020097
:10013000395302003953020039530200F54F0200CF
:100140003953020039530200395302003953020077
:10015000CD660200E5660200FD660200156702003A
:1001600039530200A95802003953020039530200E2
:100170003953020039530200395302003953020047
:100180003953020039530200395302003953020037
:100190003953020039530200395302003953020027
:1001A0003953020039530200395302003953020017
:1001B000395302003953020039530200574B4CF2B5
:1001C000205210B51A804DF628121A8000BF00BFC9
:1001D00025F0B6F8524B4FF010621A60514A9A60FF
:1001E000514ADA60A3F53043203B1A6812F480725A
:1001F00004D14E490A604FF4A8521A604C4B1A7849
:10020000110703D51A7842F008021A70494B4A4C7C
:100210004A482A221A704A4A00239918A14203D256
:10022000195899500433F8E7464B474900228B424E
:1002300002D243F8042BFAE74448454900235A58B0
:100240001A500433B3F5DE7FF9D1424B424A802184
:1002500003F8011B9342FBD1404B3C4A1A60404BD0
:100260008A221A70A3F5805324225A70A0221A7091
:100270009A799207FCD59A79D406FCD4394A9379B5
:1002800003F00C03082B374BF9D103221A714622D5
:100290005A719A799006FCD5324A9179314B4906C8
:1002A000FBD5314A4FF08271116009215160202243
:1002B0001A709A7902F00C020C2AFAD12B4B2C4AB4
:1002C0001A602C4B2C4A1A6000225A60072243F80D
:1002D000042C2A4AC3F80C2D62B625F0A1F9134B61
:1002E0001B68DA0705D5264825F03EF9254B264A36
:1002F0001A60264B1B785B0609D5224C224A2368DC
:10030000934204D11E4825F02FF9002323602AF0E0
:1003100043FB25F01BF826F09BFAFEE70E20054074
:1003200030800440823F04000100002B14D00340C1
:1003300002D0074000E00740B4DAFF1FBC9C030076
:100340006087FF1FB8DAFF1FD83900200082FF1F27
:100350000000000000E400E05FE400E008ED00E0E1
:1003600000500640004006404480044004800440A1
:10037000C010050014E000E0BFD401000000202000
:10038000566642591CE00340A5C3945A00F007404A
:10039000FFFFFFFFFFFFFFFFFFFFFFFFFFFFFFFF6D
:1003A000FFFFFFFFFFFFFFFFFFFFFFFFFFFFFFFF5D
:1003B000FFFFFFFFFFFFFFFFFFFFFFFFFFFFFFFF4D
:1003C000FFFFFFFFFFFFFFFFFFFFFFFFFFFFFFFF3D
:1003D000FFFFFFFFFFFFFFFFFFFFFFFFFFFFFFFF2D
:1003E000FFFFFFFFFFFFFFFFFFFFFFFFFFFFFFFF1D
:1003F000FFFFFFFFFFFFFFFFFFFFFFFFFFFFFFFF0D
:10040000FFFFFFFFFFFFFFFFFFFFFFFFDEF9FFFF23
:1004100010B5054C237833B9044B13B10448AFF33E
:1004200000800123237010BDB8DAFF1F0000000018
:10043000B49C030008B5064B1BB106480649AFF350
:1004400000800648036813B1054B03B1984708BD07
:1004500000000000B49C0300BCDAFF1FB4DAFF1FE9
:100460000000000038B5002105464FF0FF32234858
:1004700024F070FC214810214FF0FF3224F074FC6E
:100480001E4804214FF0FF3224F078FC1B48032162
:100490004FF0FF3224F07CFC4FF0FF321748102160
:1004A00024F080FC15484FF0FF3124F08FFC1348F6
:1004B0004FF0FF3124F080FC10484FF0FF3124F062
:1004C0008FFC0F4B0D48002413214FF0FF321C60AE
:1004D00024F090FC0B4B0C4A1D602146A2F1100346
:1004E00043F8041B9342FBD1084A0021A2F11003F8
:1004F00043F8041B9342FBD138BD00BFE8DAFF1F6D
:10050000D4DAFF1F4CDCFF1FE8DAFF1F60DCFF1F9F
:10051000884207DA044B081A1B684FF4400191FB2C
:10052000F0F11981704700BF4CDCFF1F014824F037
:10053000E3BB00BFE8DAFF1F30B400EB4004E40087
:10054000094A0A4900EB8005002300EB4500A3544B
:1005500001EB40001444E218C15A51800233162BBB
:10056000F9D130BC704700BFBCDCFF1F78E8FF1F2B
:1005700008B500F029FB007808BD00BF032810B5BE
:10058000044606D800EB4002D2000C4BD15CFF2998
:1005900000D010BD0121D15400F016FB084B04EB34
:1005A00084021B6804EB420403EB44040023C218DA
:1005B0005288E2520233162BF9D110BDBCDCFF1F6A
:1005C000B8DCFF1F032810B41AD8114B114C1B685C
:1005D00000EB800100EB410149000C441944002369
:1005E000E25ACA520233162BFAD100EB4000C00087
:1005F000094BC25CFF2A06D0012A04D00022C25453
:100600005DF8044B7047FF22C2545DF8044B7047FD
:10061000B8DCFF1F78E8FF1FBCDCFF1F032810B405
:100620000BD8074B00EB4000C000C41804EB41049A
:100630000A29628004BFFF22C2545DF8044B704750
:10064000BCDCFF1F08B50020FFF776FF0120FFF795
:1006500073FF0220FFF770FF0320BDE80840FFF79B
:100660006BBF00BF10B50024204600F0ADFA037840
:10067000E0B22BB9FFF760FF0134042CF4D110BDB8
:10068000FF2BF9D1E0B2FFF779FFF5E7014B185CDA
:10069000704700BF60DCFF1F03299CBF014B58540B
:1006A000704700BF60DCFF1F054B10B4010C040A4B
:1006B000020E5C7018709970DA705DF8044B704728
:1006C00060DCFF1F10B40023064C1846E15CDA0022
:1006D000013301FA02F2042B40EA0200F6D15DF880
:1006E000044B704760DCFF1F70B42B4C2378C0F5BF
:1006F0007F40FF301904002B3AD041F00043274AD5
:1007000043F010035363D36A03F47043B3F5405FBF
:10071000F9D8D1B180B240F08050204A01435163F2
:10072000D36A03F47043B3F5405FF9D81B49CB6A31
:100730001A4A13F0F00FFAD0936BD36A174913F0EB
:10074000F00FFAD08B6B70BC7047154C134B2268BE
:1007500080B240F0C0504FF080551170DD621A46F3
:100760005863D36ADB00FCD5236801221A70DDE7E9
:100770000B4A0A4B12684FF0805610251170DE624A
:100780001A465D63D36A03F47043B3F5405FF9D84A
:1007900021780904BDE700BFB437002000C0024043
:1007A000B037002070B42B4C2378C0F57F40FF3069
:1007B0001904002B3AD041F00043274A43F01203BA
:1007C0005363D36A03F47043B3F5405FF9D8D1B1F2
:1007D00080B240F08050204A01435163D36A03F451
:1007E0007043B3F5405FF9D81B49CB6A1A4A13F03E
:1007F000F00FFAD0936BD36A174913F0F00FFAD0C9
:100800008B6B70BC7047154C134B226880B240F064
:10081000C0504FF080551170DD621A465863D36A9C
:10082000DB00FCD5236801221A70DDE70B4A0A4B76
:1008300012684FF0805612251170DE621A465D6311
:10084000D36A03F47043B3F5405FF9D82178090403
:10085000BDE700BFB437002000C00240B037002021
:1008600070B42B4C2378C0F57F40FF301904002B67
:100870003AD041F00043274A43F014035363D36A4C
:1008800003F47043B3F5405FF9D8D1B180B240F0C2
:100890008050204A01435163D36A03F47043B3F597
:1008A000405FF9D81B49CB6A1A4A13F0F00FFAD00F
:1008B000936BD36A174913F0F00FFAD08B6B70BCAF
:1008C0007047154C134B226880B240F0C0504FF077
:1008D00080551170DD621A465863D36ADB00FCD57F
:1008E000236801221A70DDE70B4A0A4B12684FF0A9
:1008F000805614251170DE621A465D63D36A03F4D4
:100900007043B3F5405FF9D821780904BDE700BF13
:10091000B437002000C00240B037002070B42B4C28
:100920002378C0F57F40FF301904002B3AD041F006
:100930000043274A43F016035363D36A03F470431A
:10094000B3F5405FF9D8D1B180B240F08050204A71
:1009500001435163D36A03F47043B3F5405FF9D8A0
:100960001B49CB6A1A4A13F0F00FFAD0936BD36A83
:10097000174913F0F00FFAD08B6B70BC7047154C11
:10098000134B226880B240F0C0504FF08055117078
:10099000DD621A465863D36ADB00FCD52368012266
:1009A0001A70DDE70B4A0A4B12684FF08056162585
:1009B0001170DE621A465D63D36A03F47043B3F5C7
:1009C000405FF9D821780904BDE700BFB4370020A3
:1009D00000C00240B0370020434A444B2DE9F047A5
:1009E0000121002410600A201C705C709C70DC7077
:1009F00024F0D2FD0920012124F0CEFD3C4D3D4ED6
:100A0000DFF820910920012124F0C0FD2146402279
:100A100039482C602AF0ECFA384A394B1168DFF873
:100A200008E13848384C41F4805A4FF038484FF4C8
:100A300000714FF0784C0127C2F800A0C3F8009075
:100A4000C3F80C80C3F810C0CEF8001037701C60DB
:100A50000378D8075BBF02F53F521C322B4A4FF494
:100A6000107111609A0754BF294A2A4A4FF4007145
:100A70005B07116032D4284B4FF410721A60274C78
:100A80004FF6FF7383F31003184623606360A3607F
:100A9000E360FFF729FE6068FFF784FEA068FFF7B8
:100AA000DFFEE068FFF73AFF94E802102B68124A75
:100AB000A66822F81310E06803F1080703F1100498
:100AC00003F11801013303F0070322F817C02B606C
:100AD00022F8146022F81100BDE8F087104B4FF4A3
:100AE00000721A60CBE700BFB8DCFF1F60DCFF1F9D
:100AF000A4DCFF1FB437002064DCFF1F3C800440EF
:100B000000C00240AC370020000C1F8008C0044029
:100B10001CB004400CC0044014B00440A8DCFF1F0B
:100B200004C0044001401F8010B004401549164B1A
:100B3000164870B40E68164D164C4FF4107246F4F9
:100B400080560E602A60226018601A6842F4406283
:100B50001A601A6851040DD442F480414FF03844B1
:100B600041F001014FF078401960DC60186170BC01
:100B70001A6070474FF038414FF07842D96070BC2E
:100B80001A6170473C80044000C0024000001F8092
:100B900018B0044014B0044024F010BBF0B4084F67
:100BA0000026084C0FCCBD19B851696003CC18362B
:100BB000602EAA60EB6028616961F2D1F0BC7047D9
:100BC000BCDCFF1F9CEA0200024B00EB400003EB81
:100BD000C0007047BCDCFF1F074B084A187910B4EF
:100BE0001C680023D118D4500533A02B0871F9D10B
:100BF0005DF8044B704700BFFCEA02001CDDFF1FDC
:100C000000EBC101C9B203481F299CBF01EB810160
:100C1000401870471CDDFF1FF0B5264C2649274DB4
:100C200083B04FF47A73022600930C272046782273
:100C30003C23A760666023F0DDFB21496660162334
:100C4000A3600B68A3FB05234A68A2FB0502896821
:100C5000A1FB05171B480097642101FB03F1A0FBD2
:100C60000171490901912046174923F0C3FB174937
:100C700066602023A3604A68A2FB05320B68A3FBD1
:100C800005038968A1FB055011490090204623F017
:100C9000B1FB104A104B12681B68104966602A2588
:100CA0002046A56023F0A6FB34236660A36003B052
:100CB000F0BD00BF583600200CEB020022222202B9
:100CC000DCDDFF1F898888881CEB0200CCDDFF1F5C
:100CD00034EB0200C8DDFF1FD8DDFF1F44EB02002C
:100CE0002DE9F041DFF8AC80234F244ED8F80030D6
:100CF000234C18883A68336822490225A0EB122257
:100D00004FF00C0E20461B0AC4F808E0656023F083
:100D100071FBD8F800307A68588873681A496560A2
:100D20004FF0160EA0EB12221B0A2046C4F808E072
:100D300023F060FBD8F80030BA689888B36813498C
:100D400065604FF0200EA0EB12221B0A2046C4F86B
:100D500008E023F04FFBD8F80030FA68D888F36831
:100D600065602A25A0EB1222A560204608491B0ACF
:100D7000BDE8F04123F03EBB50DCFF1FD8DAFF1F77
:100D80005836002054EB020060EB02006CEB0200CE
:100D900078EB02004CDCFF1F30B5144C83B000210F
:100DA0004023204600930A46802323F04BF800227C
:100DB0000C2320460E496260A36023F0B7FA0D4869
:100DC0000D494268022516236560A360A2FB01322B
:100DD0000368A3FB01538068A0FB01100749009042
:100DE000204623F007FB03B030BD00BF583600207B
:100DF00084EB0200BCDDFF1F2222220288EB0200EE
:100E00000D4A116808B541F080710C4B11601A68E9
:100E100042F001021A601820012124F0BDFB1920C4
:100E2000012124F0B9FB0649064B20204FF4002293
:100E300008601A6008BD00BFFCED00E0001000E093
:100E400008F00F4048F00F402DE9F043374FDFF82E
:100E5000E88083B004463D464646D8F80828D8F8CE
:100E60000C38D31A022B2AD0D6F8083803F0010325
:100E700003F5007356F8231009B3DFF8C090012280
:100E8000484622F0D1FDEA1BD2104FF0020E01328B
:100E9000032348462649C9F804E0C9F808E023F0CE
:100EA000A9FA4846296823F041FA6B6898474846F2
:100EB00022F0C8FDD6F808380133C6F808380020FB
:100EC00004F16001D4F8E020D4F8E4309A4219D05B
:100ED000D4F8E43003F00F0201EBC2020133528870
:100EE000C4F8E430082A1DD0042AEBD1AB68DBB18A
:100EF000EB68CBB1D4F8E020D4F8E4309A4205F1A5
:100F00000805E5D10028A8D000230A4AC4F8E43037
:100F1000C4F8E03013680193019BC4F8EC3003B0CF
:100F2000BDE8F0830120CDE7004DCBE7BCEB02002C
:100F30009CEB0200A8360020482E002058360020E6
:100F400010B40948094C0A4A00234FF0FF312360CE
:100F5000A3606160036041608360516013609360CF
:100F60005DF8044B704700BFCCDDFF1FDCDDFF1FC9
:100F7000BCDDFF1FF8B50E4C04F12007257866682C
:100F80002846022124F008FB083428463146022274
:100F900024F068FABC42F1D1064B074A00211960DF
:100FA000A2F1100343F8041B9342FBD1F8BD00BF2C
:100FB000DCEB0200E8DDFF1FFCDDFF1F08B50320AE
:100FC000022124F0E9FA032002490222BDE8084088
:100FD00024F048BA5188FF1F104B196810B411B1A2
:100FE00000221A60012158680C4A10B1002050609C
:100FF00002209A68094C014312B10022A260042227
:10100000DB6806480A4313B10023C3600823044C7D
:10101000134323605DF8044B704700BFECDDFF1FF6
:10102000E8DDFF1F00230F22012180F8232001703B
:10103000437080F8223043628362821ED9010232FB
:101040000133102B5180F9D1704700BF70B4141CCC
:1010500018BF0124047074B132F8136000231A46DB
:10106000C51802339419202B6A80A2B2F8D101234B
:1010700080F82310437070BC704700BFF0B406784E
:10108000002E6AD04378002B70D0841D0D250FB23E
:10109000002D11DD6A1004EB420634F91230BB4218
:1010A00005DC5DE034F91350BD425BDD1A46531098
:1010B00004EB4306002AF5D100F1020CCCEB040C42
:1010C0004FEA6C0CACF102039BB20FFA8CFC1AB223
:1010D000944556DB4FF6FF764FF4007400EB420266
:1010E00027B2B2F902504D1B002DB8BF6D42ADB210
:1010F0002AB2BA4203F10102B8BF1E4693B21AB235
:10110000B8BF2C469445E9DA36B23346741E721CD9
:1011100000EB430300EB42025B88B2F9021000EBE4
:1011200044041AB2658801EBC1010727C2EBC20271
:10113000092413FB071315FB04221B111211002EA7
:10114000836242621BDB90F923309E42A8BF1E4699
:10115000F6B2002380F82260437070B2F0BC704792
:1011600013462A46D31A5D1EB41C91E7436A8B428C
:101170008BDC836A994288DC90F82260EDE70026D8
:10118000E7E74FF0FF331E4600226FF00104BFE790
:101190002DE9F84F26A7D7E90067DFF8A8A0DFF808
:1011A000A8B0254D4FF00A094FF000084FF0FF346A
:1011B00014E029F045F9214929F096F928F000FDBD
:1011C00004460D4626F0F6FF06460F462046294601
:1011D00027F052F809F1010904460D460022184B88
:1011E0003046394628F040FD29F020F829F042FB2E
:1011F0000022134B4AF808002946204628F034FD07
:1012000029F014F829F036FB8BFB09234FEAE97229
:10121000C2EB63030AEB080208F1080803EB43037F
:10122000B8F1600F5060A9EB8300C2D1BDE8F88F20
:10123000ADB161B9C59B493EFFFFEFBF920A063FC2
:1012400000003C40FCDDFF1FABAAAA2AAFF30080E0
:101250002DE9F04F83461C2385B02B482B4D8A4641
:10126000914622F0CFFE9BF8003005EBC30155F804
:1012700033204B680AEB020C09EB030847460124B4
:10128000E046234900912048A8F10301FA1E0823F3
:1012900022F0FEFD1BF804601B4855F8362005EBD4
:1012A000C6030AEB02065B6809EB030CCDF800C02D
:1012B00041463A4601343346CDF80CC022F038FEA0
:1012C000032CDDF80CC002D0B0466746D9E79BF886
:1012D00000200E490C4851F8323001EBC20237466B
:1012E00052684A445344009239466246664622F0A8
:1012F0001FFE074B0093F91EF21E0348082322F03D
:10130000C7FD05B0BDE8F08F58360020FCDDFF1F9B
:10131000F4EA02007A4A137870B4032B40D8DFE86D
:1013200003F0B77C41027749774B0D687748013568
:1013300005F0070505F1180103EB4101C5F10703AD
:10134000013B31F8024B20F8024F5E1CF8D1704B84
:10135000C5F1080003EB40006B1E3DB16D4931F84B
:10136000024F20F8024B013B5C1CF8D16A4D6B4CDC
:101370002E68A4F11003002133F8020FA3420144A8
:10138000FAD1674B06F1C00081F4F821C1F3843132
:10139000013623F8101006F03F0600232E6013706C
:1013A00070BC70475749584B0D685848013505F0D7
:1013B000070505F1100103EB4101C5F10703013BEE
:1013C00031F8024B20F8024F5E1CF8D1504BC5F1AA
:1013D000080003EB40006B1E3DB1524931F8024F4B
:1013E00020F8024B013B5C1CF8D14B4B4B4C1D6869
:1013F0000021A4F1100333F8020FA3420144FAD1F3
:1014000005F1800481F4F8214548C1F384310323B8
:1014100020F81410137070BC70473A493A4B0D68AD
:101420003A48013505F0070505F1080103EB4101D4
:10143000C5F10703013B31F8024B20F8024F5E1C57
:10144000F8D1334BC5F1080003EB40006B1E3DB1F2
:10145000354931F8024F20F8024B013B5C1CF8D1B2
:101460002D4B2E4C1D680021A4F1100333F8020F00
:10147000A3420144FAD105F1400481F4F82128483F
:10148000C1F38431022320F81410137070BC70472C
:101490001C4B1D491D681D48013505F0070501EB72
:1014A0004501C5F10703013B31F8024B20F8024F1B
:1014B0005E1CF8D1164BC5F1080003EB40006B1E13
:1014C0003DB11A4931F8024F20F8024B013B5C1C38
:1014D000F8D1114B114C1D680021A4F1100333F811
:1014E000020FA3420144FAD181F4F8210C48C1F360
:1014F0008431012320F81510137070BC704700BFB1
:101500006CE0FF1FA4DCFF1F64DCFF1F5AE0FF1F1D
:101510005CE0FF1F92DCFF1F70E0FF1F6AE0FF1F0F
:101520005CDEFF1F82DCFF1F72DCFF1F62DCFF1F1F
:101530002DE9F843FFF7EEFEDFF8B8802B4C2C487E
:1015400000230121D8F80020066801321A4402F075
:101550003F0202F1400C34F81270FD1003EBC51588
:1015600007F0070716F8059001FA07F749EA070799
:10157000775534F81CC0066803F140074FEAEC05C4
:1015800007EBC5150CF0070C16F8059001FA0CFCDA
:1015900049EA0C0C06F805C002F18005066834F82B
:1015A00015C00CF1200C4FEAEC0503EBC5150CF04F
:1015B000070C16F8059001FA0CFC49EA0C0C06F829
:1015C00005C0C032056834F812602036F21007EB0F
:1015D000C21206F00706AF5C01FA06F601333E437D
:1015E0003F2BAE54AED1BDE8F88300BF5CDEFF1FD9
:1015F0005836002070E0FF1F7A4A137870B4032B2E
:1016000040D8DFE803F0B77C41027749774B0D689B
:101610007748013505F0070505F1180103EB410195
:10162000C5F10703013B31F8024B20F8024F5E1C65
:10163000F8D1704BC5F1080003EB40006B1E3DB1C3
:101640006D4931F8024F20F8024B013B5C1CF8D188
:101650006A4D6B4C2E68A4F11003002133F8020F81
:10166000A3420144FAD1674B06F1C00081F4FC218A
:10167000C1F34531013623F8101006F03F06002370
:101680002E60137070BC70475749584B0D6858480E
:10169000013505F0070505F1100103EB4101C5F126
:1016A0000703013B31F8024B20F8024F5E1CF8D1D2
:1016B000504BC5F1080003EB40006B1E3DB1524991
:1016C00031F8024F20F8024B013B5C1CF8D14B4B28
:1016D0004B4C1D680021A4F1100333F8020FA34204
:1016E0000144FAD105F1800481F4FC214548C1F39D
:1016F0004531032320F81410137070BC70473A4929
:101700003A4B0D683A48013505F0070505F1080127
:1017100003EB4101C5F10703013B31F8024B20F80F
:10172000024F5E1CF8D1334BC5F1080003EB4000BB
:101730006B1E3DB1354931F8024F20F8024B013B99
:101740005C1CF8D12D4B2E4C1D680021A4F1100318
:1017500033F8020FA3420144FAD105F1400481F4A9
:10176000FC212848C1F34531022320F814101370DE
:1017700070BC70471C4B1D491D681D48013505F0A4
:10178000070501EB4501C5F10703013B31F8024BA9
:1017900020F8024F5E1CF8D1164BC5F1080003EB90
:1017A00040006B1E3DB11A4931F8024F20F8024B40
:1017B000013B5C1CF8D1114B114C1D680021A4F1B8
:1017C000100333F8020FA3420144FAD181F4FC2143
:1017D0000C48C1F34531012320F81510137070BC7B
:1017E000704700BF6CE0FF1FA4DCFF1F64DCFF1F1D
:1017F0005AE0FF1F5CE0FF1F92DCFF1F70E0FF1F3D
:101800006AE0FF1F5CDEFF1F82DCFF1F72DCFF1F30
:1018100062DCFF1F2DE9F041FFF7EEFE1B4FDFF802
:1018200074C01B4900220126DCF800303C680133FB
:10183000134403F03F0303F1400531F8130031F87E
:1018400015504FEAE50800EBC81005F0070514F83D
:10185000008006FA05F548EA0505255403F1C000A5
:10186000803331F8104031F813303868E5104033D8
:1018700003EBC51304F00704C55C06FA04F4013257
:101880002C433F2AC454CFD1BDE8F0815836002004
:101890005CDEFF1F70E0FF1FF0B4084F0026084D0C
:1018A0000FCDBC190FC40FCD0FC495E80300283627
:1018B000A02E84E80300F2D1F0BC7047BCE1FF1F0A
:1018C000A4EC02000328D2BF034B044B043800EB06
:1018D000800003EBC0007047BCE1FF1F7CEC0200FE
:1018E000704700BF2DE9F0412F4B304E1B6882B08E
:1018F000002146F2A812019380E80600019BC0F87F
:10190000EC300446054606F11008FF2756F8040F90
:10191000C0B2A860022123F03FFE46452F7305F1B7
:101920000805F3D104F1280304F13801002243F83B
:10193000042B99424FF00005F9D12587658784F87B
:101940003C5084F83D5010200221FF2623F024FE55
:101950000F20022123F020FE84F8405084F84150EB
:101960006564A56484F84D6084F84C6016200221FB
:1019700023F012FE1520022123F00EFEC4F8E850D9
:1019800084F85D60C4F8E45084F85C6084F85050DA
:1019900084F851506565A565C4F8E050C4F8EC5072
:1019A00002B0BDE8F08100BFA83600209419030002
:1019B00001F00103C1F3400180F8413080F851107B
:1019C000704700BF094B82B01B6801934FF47A72D5
:1019D00002FB01F1B1F5FA6F019BC0F8EC3038BFA2
:1019E0004FF4FA61416002B0704700BFA836002092
:1019F00080F83D10704700BF2DE9F043DFF8D48038
:101A000083B0044689466E460127D4F8E020D4F816
:101A1000E4309A4225D0D4F8E430658F03F00F0209
:101A200004EBC202603292E8030086E80300BDF8CE
:101A3000022001331542C4F8E43094F83C3021D13F
:101A40002BBB9DF80000022825D003282CD00128AC
:101A500025D0D4F8E020D4F8E430C8F800709A42D9
:101A6000D9D11B4BD4F8EC201B6800930099636814
:101A70008A1A9A4224D9012384F83C30002003B00A
:101A8000BDE8F08325EA02026287002BBDD0002367
:101A900084F83C30B9E7012A0BD0082AEFD0D9F8F6
:101AA000283068469847D4E7D9F82C3068469847DC
:101AB000CFE794F83D30002BCBD184F83C20C8E729
:101AC00094F83C0080F0010003B0BDE8F08300BF53
:101AD000A8360020D8CAFF1F2DE9F04F6F4A704D7D
:101AE0001368704E87B08A460493049B0393AB46F9
:101AF0008146B9F83830694913F0040F0A68059235
:101B000014BF0327012703F0030213F0080F18BFC7
:101B10000227033A53425341059C8AF80030D5F816
:101B20000828D5F80C38D31A022BF8D0DBF808387F
:101B300003F0010303F500735BF823100029EED0D6
:101B40005848012221F070FF0020FEF79FFD002879
:101B500073D0544800210C22802322F0EDF84FF07E
:101B6000020850485049C6F80480C6F8088022F0A0
:101B7000DDFB11234B484D49C6F80480B36022F0C9
:101B8000D5FB032F79D047484949C0F804801D236D
:101B9000836022F0CBFB022F66D09AF8003002213E
:101BA00029227160B260002B42D102227260039A36
:101BB0003C4840493523C2EB0408B36022F0B6FB31
:101BC000B8F57A7F32D3039901F6E8331B1BC3F3D0
:101BD00014130222009233483E22002121F036FFE6
:101BE000D9F8E020D9F8E4309A420AD0D9F8E430A4
:101BF0000133C9F8E430D9F8E020D9F8E4309A424A
:101C0000F4D1284821F01EFFD5F8082840F6E73324
:101C100001329845C5F808287FF66BAFB9F838301F
:101C2000A9F83A30384607B0BDE8F08F8023D0E7F6
:101C30001C48214922F07AFBB7E70120FEF726FD78
:101C4000002886D10220FEF721FD002881D1032043
:101C5000FEF71CFD014600287FF47BAF11480C22E3
:101C6000802322F041F87AE70C2300930D4839468F
:101C70001B22802321F0CCFF8FE70C2300934146E9
:101C800008480F22802321F0C3FF06480849C0F806
:101C900004801D23836022F049FB7EE7A8360020E4
:101CA000482E002058360020A8190300BC19030054
:101CB000D0190300F8190300E419030008B523F054
:101CC0007DFA03480349044ABDE8084028F04EBEA7
:101CD0005CE2FF1FE118000020B4FF1F70B4441C39
:101CE000A14200F1FF35C8BFE1B205EB451529441B
:101CF000104E56F821107AB14FF0FF3592FBF4F6F2
:101D000004FB162205FA00F021EA0000A51A20FAC9
:101D100005F100FA02F21143B3FBF4F204FB1233B3
:101D2000012404FA03F319420CBF0020012070BC07
:101D3000704700BF001A0300431C30B4994200F101
:101D4000FF34C8BFD9B204EB441421440B4D55F8FD
:101D500021107AB192FBF3F54FF0FF3403FB15220B
:101D600004FA00F09B1A21EA000020FA03F100FABD
:101D700002F21143084630BC704700BF001A03004E
:101D8000002301220270C0F82431C0F82831C0F8C5
:101D90002C31C0F8303100F120026FF03F03D9013F
:101DA0000133402B22F8021FF9D170472DE9F00FC3
:101DB000BDF8205000295BD0002B59D0002A57D005
:101DC0004FF6FF749C4035EA040451D001260024EC
:101DD0000670A14615F0010F4FEA550506D000EB3D
:101DE000490631F81470778009F1010901349C42E9
:101DF000F0D1002109F1004ADFF888800AF1FF3AAA
:101E00000B460C4600F1020C00F1A00700F1A206FF
:101E10001AE0B5F5004FA8BF47F6FF752DDB40452A
:101E200023DBB0F5004FA8BF47F6FF7027DB013377
:101E30004B4501F1010124BF01340023402927F85B
:101E4000025F26F8020D15D0C3EB0A003CF91350CF
:101E50003CF910B002FB0455E043454502FB00B0DD
:101E6000D7DA404548F20105DBDA48F20100DEE747
:101E700000230370BDE8F00F7047ADB2CFE780B22A
:101E8000D5E700BF0180FFFF2DE9F0030478002CA7
:101E900000F09480891AD0F82C41A1F5406CA4453B
:101EA0007FDA00F128057B260FFA8CF8002E11DD71
:101EB000741005EB440735F91410414505DC6AE060
:101EC00035F91160464568DD0C46611005EB4107A8
:101ED000002CF5D100F12209C9EB05094FEA690987
:101EE000A9F1020189B20FFA89F90CB2A1456BDBA5
:101EF0004FF6FF774FF4804500EB44040FFA85F866
:101F0000B4F92260C6EB0C06002EB8BF7642B6B21A
:101F100034B2444501F10104B8BF0F46A1B20CB27E
:101F2000B8BF3546A145E7DA39B2BEB24C1C4F1EE8
:101F300000EB410100EB4404498CB4F9225000EB62
:101F400047070CB2B7F8228005EBC5054FF007092B
:101F5000C4EBC4044FF0090C1E4411FB095118FBDB
:101F60000C4436B209112411002EC0F83011C0F80B
:101F70002C4127DD7E2EA8BF7E2600EB4606B6F953
:101F80002210C0F82411C0F82831114401F5406036
:101F9000BDE8F003704721463446611A4E1EBD1C51
:101FA00084E7D0F830118C453FF77BAFD0F828118B
:101FB00099427FF476AFD0F82411E6E70846BDE8F1
:101FC000F00370470126D8E74FF6FF7600246FF044
:101FD00001074FF0FF31ABE7002908DB7F29D6BFAF
:101FE00000EB4101B0F92001B1F922007047B0F9CE
:101FF0002200704710B4002113234FF466420924D5
:10200000026183764376037604808160418081801B
:10201000818141618177416580F85010C0F8E010FE
:1020200000F1200300F1280223F8021B9A42FBD1A1
:1020300000F13003002122F8021B9342FBD1403013
:10204000002243F8042B9842FBD15DF8044B704703
:10205000444B454A10B483FB00430344C417C4EB0C
:10206000233302FB030044110B2907D8DFE801F0FA
:10207000172029323B444D565F0671683B4A611C6C
:1020800052F8211052F82420891A00F01F0000FB9A
:1020900001F002EB501098405DF8044B7047334A52
:1020A000611C52F8211052F82420C90AD20AEBE729
:1020B0002E4A611C52F8211052F82420490A520A73
:1020C000E2E72A4A611C52F8211052F82420C9097B
:1020D000D209D9E7254A611C52F8211052F8242070
:1020E00089099209D0E7214A611C52F8211052F85F
:1020F000242049095209C7E71C4A611C52F82110E3
:1021000052F8242009091209BEE7184A611C52F846
:10211000211052F82420C908D208B5E7134A611CDF
:1021200052F8211052F8242089089208ACE70F4A8F
:10213000611C52F8211052F8242049085208A3E7E4
:102140000A4A611C52F8211052F82420890092009A
:102150009AE7064A611C52F8211052F824204900DF
:10216000520091E7D1000DD050ECFFFFAC3C0300D2
:102170002DE9F04F0446406D01308DB08946606511
:1021800023B194F85030002B40F02F811AB9A37F6F
:10219000002B00F0DA8004F1300304F1400000214C
:1021A00043F8041B98424FF00002F9D1206BA2774C
:1021B000A1890891DDF820C0A78AB4F80490637F54
:1021C0002269E67E217F06970FFA8CFC0027CDF866
:1021D0001C9065880B97CCF1000905928DF82F3083
:1021E000CDF810C03A46CDF8249002978DF82D60B6
:1021F0008DF82E10A3462346A246049E541C04F0DC
:102200000301002E01F1100140F390803AF8111003
:10221000089F11FB0700DFF808C32F1307EB072700
:10222000010E67444E1C07F2011C17F8018017F8D5
:1022300006901CF801701CF806C0CDF80CC04FEADF
:10224000072CCDF804C0DDF80CC020F07F40C7EBB0
:102250000C07C8EB0909039700FB09F9CDF80090BA
:10226000019FDDF80C90A7F5004C4FEA082809FB08
:1022700000F7DDF80090A8F5004808EB29480CEBC2
:10228000274C1FFA88F80FFA8CFC0FFA88F74FEAF0
:102290000519C7EB0C071FFA89F909FB07F708EBCB
:1022A00027481FFA88F8DFF87CC21FFA88F71F85D5
:1022B0001CF801101CF80660761A0902A1F500410D
:1022C0003FB206FB00F601EB2646524407F50047F5
:1022D00002991E843F12A8F5004C82F8447011B395
:1022E000BAF9282002F500420A4102FA01F88CEA04
:1022F00008081FFA88F8059A069E079F02FB08F84F
:1023000006EB28483D44042CA3F848802246ADB291
:102310000BF1040B03F1020314D00BA9DBF830001E
:102320000C5D029469E788F40048E4E7D11C01F0F1
:1023300003011031DDF824903AF91110541C09FB07
:10234000010068E70DB0BDE8F08F94F85060002EF2
:1023500063D148462188FFF77BFE2064236B217EF2
:10236000A27E657E8DF82F20034413271329236353
:10237000DFF8B4C18DF82D108DF82C708DF82E502B
:1023800023464FF0000213D05CF82110A0FB01712E
:102390005D6B3F0E47EA012101320D44032A5D6364
:1023A00003F104030CD00BA9114449781329EBD194
:1023B000596B01320144032A596303F10403F2D13A
:1023C000238B73BB6EBBA568002D3ADB4846218882
:1023D000FFF73EFE236BED031844421953191D44C9
:1023E00020636263E563A363E2E64C4B984211D835
:1023F000A6283ED8D4F8E03003EB43010844800817
:10240000984207D04FF0FF33B3FBF0F3C4F8E0007D
:10241000C4F8E43000236365B8E6D4F8E40020642F
:102420009CE7A3680A2B22DD656BA16BE26B206B36
:102430000A3B9B001D44194413446563A163E36395
:10244000B6E641F2B03303FB05F527884FEAE538DD
:10245000254648463946FFF7FBFD2B6B04361844EA
:10246000102E2863C8EB090905F10405F1D1206B92
:102470009EE6D4F8D810039104EB8103002601F105
:10248000400B01F1200802969865314601275FFA5A
:1024900087FA5B464FF0000CDE1B03F01F0506F0C9
:1024A0001F0604EB860604EB8505B66DAD6DAE1B0D
:1024B000002EB8BF7642B6EB151F38BF0CF1010CE9
:1024C00003F1FF3338BF5FFA8CFC4345E4D161452B
:1024D00007F101079CBFCDF808A06146082FD6D1AF
:1024E000039FDDF808C0D4F8DC50D4F8E030791C44
:1024F00001F01F01CCEB010606F01F06C4F8D8104E
:1025000004EB8601451B896DC4F8DC10002DB8BFB3
:102510006D42B5EB101F38BF084671E7D7080200BF
:10252000982A0300A93B0300FC2903002DE9F00FC2
:102530004FF07F48B8FBF3F8581EC3B30B131D4C84
:1025400003EB03231F194FEA01191FFA89F907F258
:10255000011C0023190E4C1C7E5C17F804B01CF8FB
:1025600001501CF804A0C6EB0B0123F07F44360297
:10257000A6F50046C5EB0A0A04FB01F12D0206EBA5
:102580002141A5F500450AFB04F489B205EB24447A
:102590000EB224B2A41B09FB04F4A1F5004101EB27
:1025A0002441013822F8021B411C4344D2D1BDE82A
:1025B000F00F7047982A0300014B1868704700BF5E
:1025C000FC230020704700BF044B054A1B681068BD
:1025D00003EB830303EB830318447047D0240020EC
:1025E00068EBFF1F704700BF014B18684000704741
:1025F0002C010020704700BF014B18688000704715
:102600000C010020012802D1014B00221A747047EE
:1026100010E9FF1F704700BF014B1868800070472A
:1026200030010020012802D1014B00221A747047AA
:1026300094100020704700BF014B1868704700BF1E
:10264000400A0020704700BF014B186840007047E7
:102650008C100020704700BF014B18688000704745
:102660003C060020704700BF704700BF014B186850
:10267000704700BF90100020704700BF014B1868E2
:10268000704700BF00FBFF1F704700BF704700BFCF
:10269000014B1868704700BF38060020704700BF24
:1026A000012802D1014B00221A7170472006002038
:1026B000014B18688000704788100020704700BFE9
:1026C000014B18688000704750000020704700BF21
:1026D0002DE9F0072D4B2E4C00228246A4F86420F1
:1026E000104616465146A44603F5167593F8148015
:1026F000B8F1060F0FD8DFE808F0331E1E040429D6
:10270000290018B101F8010BA4F86460A75821F85A
:10271000027BB4F864001833AB4202F10402E5D145
:1027200020B1002301F8010BA4F86430CAEB0100CA
:10273000BDE8F007704718B101F8010BA4F8646018
:10274000A75801F8017BB4F86400E4E718B101F878
:10275000010BA4F86460A75841F8047B0020DAE775
:10276000A75807F00F0747EA0017BFB21FFA87F90B
:1027700019F4704F05D001F8017B0020ACF86460BB
:10278000C9E749F47060ACF86400C4E7E4CDFF1F0A
:10279000A8E3FF1F2DE9F00F594D5A4A0023AB83E0
:1027A00080461C461E462F46117D06290DD8DFE8BF
:1027B00001F08E3030040439390014B100F8014BB7
:1027C000AE83E95820F8021BAC8B04331C2B02F1BA
:1027D0001802E9D11CB1002300F8014BAB834A4D2C
:1027E000C8EB000005F1100405F50179002608EB9F
:1027F000000C0023454A268261469B4692F814A0AD
:10280000BAF1060F22D8DFE80AF04F373716164321
:10281000430014B100F8014BAE83E95800F8011BE6
:10282000AC8BD2E714B100F8014BAE83E95840F805
:10283000041B0024C9E7BBF1000F02D001F801BB63
:102840002E84E75821F8027BB4F810B00433102B23
:1028500002F11802D2D1BBF1000F02D001F801BB86
:102860002E841434CCEB01014C45084405F11405C9
:10287000BDD1BDE8F00F7047BBF1000F02D001F8E9
:1028800001BB2E84E75801F8017BB4F810B0DDE7F6
:10289000BBF1000F02D001F801BB2E84E75841F8CC
:1028A000047B4FF0000BD1E7E75807F00F0747EA2A
:1028B0000B17BFB21FFA87FB1BF4704FA4F810B0C0
:1028C00014D001F8017B4FF0000B2E84BEE7E958CD
:1028D00001F00F0141EA041189B28CB214F4704F77
:1028E00009D000F8011B0024BE836EE74BF4706B27
:1028F000A4F810B0AAE744F47064BC8365E700BF95
:10290000400600204045030050060020306E0300C2
:102910002DE9F00F344C354D82B04FF0000C019092
:1029200004F5B6696646DDF80480314BA4F898607A
:10293000E04400224146104693F814A0BAF1060F75
:102940000FD8DFE80AF039242404042F2F0018B12F
:1029500001F8010BA4F89860A75821F8027BB4F89D
:1029600098001833AB4202F10402E5D118B101F826
:10297000010BA4F8986004F53674C8EB01014C45CE
:102980008C44D0D1604602B0BDE8F00F704718B15A
:1029900001F8010BA4F89860A75801F8017BB4F87E
:1029A0009800DEE718B101F8010BA4F89860A75869
:1029B00041F8047B0020D4E7A75807F00F0747EA47
:1029C0000017BFB21FFA87FB1BF4704FA4F898B032
:1029D00005D001F8017B0020A4F89860C1E74BF412
:1029E0007060A4F89800BCE76CEBFF1F0CC8FF1FD9
:1029F0007CC4FF1F2DE9F00F324C334D82B0002311
:102A00000193834604F5F0781E46DDF804C02F4B91
:102A1000A685DC4400226146104693F81490B9F173
:102A2000060F0DD8DFE809F036242404042D2D000C
:102A300010B101F8010BA685A75821F8027BA08DE3
:102A40001833AB4202F10402E7D110B101F8010BD7
:102A5000A685DDF804A0CCEB010178348A44444516
:102A6000CDF804A0D1D1504602B0BDE8F00F7047B8
:102A700010B101F8010BA685A75801F8017BA08DC4
:102A8000DEE710B101F8010BA685A75841F8047BD9
:102A90000020D5E7A75807F00F0949EA001A1FFAE6
:102AA0008AF91FFA89FA1AF4704FA4F82CA004D0FE
:102AB00001F8019B0020A685C2E74AF47060A0855A
:102AC000BEE700BF38E9FF1FCC690300C4680300FC
:102AD0002DE9F00F384ADFF8EC80384D4FF0000C4C
:102AE00058F8044C402C08EB0403C4F13F065FD0B7
:102AF00033491E44013B13F8010F01F8010FB342A3
:102B0000F9D1C4F140032B44414634B11C4411F8BF
:102B1000010B03F8010BA342F9D10CF10804E410F6
:102B20004FEAEC00E401C00104F17F0700F17F06E9
:102B30003F23116815F80390C3EB070A09F0020B55
:102B400001F80A904FEAD91A11684AEAC91A4AEA02
:102B50004B1A09F0040B19444AEACB0A09F0080B96
:102B60004AEA4B0A09F0100B01F804904AEA5B01AB
:102B700009F0200A41EADA0109F0400941EA59194D
:102B8000C3EB060A11685FFA89F901F80A90116827
:102B90001944013B01F80090591CCAD10CF1100CEA
:102BA000BCF1400F08F584789AD1BDE8F00F70476A
:102BB0004146024BAAE700BF5836002028EBFF1F12
:102BC00027EBFF1F801100202DE9F00F344C354D0D
:102BD00082B04FF0000C019004F584696646DDF880
:102BE0000480314BA4F84C60E0440022414610467A
:102BF00093F814A0BAF1060F0FD8DFE80AF03924D1
:102C00002404042F2F0018B101F8010BA4F84C6024
:102C1000A75821F8027BB4F84C001833AB4202F1FC
:102C20000402E5D118B101F8010BA4F84C6004F5D9
:102C30008474C8EB01014C458C44D0D1604602B08D
:102C4000BDE8F00F704718B101F8010BA4F84C6013
:102C5000A75801F8017BB4F84C00DEE718B101F881
:102C6000010BA4F84C60A75841F8047B0020D4E77E
:102C7000A75807F00F0747EA0017BFB21FFA87FBF4
:102C80001BF4704FA4F84CB005D001F8017B002074
:102C9000A4F84C60C1E74BF47060A4F84C00BCE7AA
:102CA000B8100020C8410300004003002DE9F007E0
:102CB0002D4B2E4C00228246A4F87C20104616464E
:102CC0005146A44603F53A7593F81480B8F1060FFF
:102CD0000FD8DFE808F0331E1E040429290018B1BC
:102CE00001F8010BA4F87C60A75821F8027BB4F826
:102CF0007C001833AB4202F10402E5D120B100237D
:102D000001F8010BA4F87C30CAEB0100BDE8F00724
:102D1000704718B101F8010BA4F87C60A75801F8BE
:102D2000017BB4F87C00E4E718B101F8010BA4F8CA
:102D30007C60A75841F8047B0020DAE7A75807F029
:102D40000F0747EA0017BFB21FFA87F919F4704F4F
:102D500005D001F8017B0020ACF87C60C9E749F49C
:102D60007060ACF87C00C4E78CC1FF1F580A0020DB
:102D70002DE9F00F344C354D82B04FF0000C01902E
:102D800004F59C696646DDF80480314BA4F87C604C
:102D9000E04400224146104693F814A0BAF1060F11
:102DA0000FD8DFE80AF039242404042F2F0018B1CB
:102DB00001F8010BA4F87C60A75821F8027BB4F855
:102DC0007C001833AB4202F10402E5D118B101F8DE
:102DD000010BA4F87C6004F51C74C8EB01014C45A0
:102DE0008C44D0D1604602B0BDE8F00F704718B1F6
:102DF00001F8010BA4F87C60A75801F8017BB4F836
:102E00007C00DEE718B101F8010BA4F87C60A7583C
:102E100041F8047B0020D4E7A75807F00F0747EAE2
:102E20000017BFB21FFA87FB1BF4704FA4F87CB0E9
:102E300005D001F8017B0020A4F87C60C1E74BF4C9
:102E40007060A4F87C00BCE7E0280020E4CDFF1F00
:102E5000FCCAFF1F2DE9F00F344C354D82B04FF006
:102E6000000C019004F510696646DDF80480314BD2
:102E7000A4F88460E04400224146104693F814A070
:102E8000BAF1060F0FD8DFE80AF039242404042F22
:102E90002F0018B101F8010BA4F88460A75821F89D
:102EA000027BB4F884001833AB4202F10402E5D18E
:102EB00018B101F8010BA4F8846004F51074C8EB94
:102EC00001014C458C44D0D1604602B0BDE8F00F02
:102ED000704718B101F8010BA4F88460A75801F8F5
:102EE000017BB4F88400DEE718B101F8010BA4F807
:102EF0008460A75841F8047B0020D4E7A75807F066
:102F00000F0747EA0017BFB21FFA87FB1BF4704F89
:102F1000A4F884B005D001F8017B0020A4F88460F7
:102F2000C1E74BF47060A4F88400BCE7F0F1FF1F28
:102F3000CC490300B44603002DE9F0072D4B2E4C7D
:102F400000228246A4F89420104616465146A44614
:102F500003F55E7593F81480B8F1060F0FD8DFE81B
:102F600008F0331E1E040429290018B101F8010BD2
:102F7000A4F89460A75821F8027BB4F894001833A1
:102F8000AB4202F10402E5D120B1002301F8010BAC
:102F9000A4F89430CAEB0100BDE8F007704718B1FF
:102FA00001F8010BA4F89460A75801F8017BB4F86C
:102FB0009400E4E718B101F8010BA4F89460A75855
:102FC00041F8047B0020DAE7A75807F00F0747EA2B
:102FD0000017BFB21FFA87F919F4704F05D001F836
:102FE000017B0020ACF89460C9E749F47060ACF84C
:102FF0009400C4E7C84103000C2400202DE9F0032D
:103000002F4B304C00222285914616460146A4469D
:1030100003F1F00593F81480B8F1060F10D8DFE83B
:1030200008F0371F1F04042B2B00B9F1000F02D04A
:1030300001F8019B2685A75821F8027BB4F8289057
:103040001833AB4202F10402E4D1B9F1000F03D00E
:10305000002301F8019B2385081ABDE8F00370479F
:10306000B9F1000F02D001F8019B2685A75801F89D
:10307000017BB4F82890E3E7B9F1000F02D001F822
:10308000019B2685A75841F8047B4FF00009D7E73C
:10309000A75807F00F0747EA0917BFB21FFA87F9C9
:1030A00019F4704F06D001F8017B4FF00009ACF81D
:1030B0002860C5E749F47069ACF82890C0E700BF04
:1030C000906E030008FBFF1F2DE9F003314B324CDB
:1030D0000022A4F84020914616460146A44603F576
:1030E000C07593F81480B8F1060F11D8DFE808F026
:1030F0003B212104042E2E00B9F1000F03D001F86A
:10310000019BA4F84060A75821F8027BB4F84090D6
:103110001833AB4202F10402E3D1B9F1000F04D03D
:10312000002301F8019BA4F84030081ABDE8F00321
:103130007047B9F1000F03D001F8019BA4F840607B
:10314000A75801F8017BB4F84090E1E7B9F1000F0E
:1031500003D001F8019BA4F84060A75841F8047B14
:103160004FF00009D4E7A75807F00F0747EA0917FF
:10317000BFB21FFA87F919F4704F06D001F8017B2E
:103180004FF00009ACF84060C2E749F47069ACF850
:103190004090BDE7DC700300000900202DE9F00F2E
:1031A000344C354D82B04FF0000C019004F5386975
:1031B0006646DDF80480314BA4F8BC60E044002290
:1031C0004146104693F814A0BAF1060F0FD8DFE875
:1031D0000AF039242404042F2F0018B101F8010B40
:1031E000A4F8BC60A75821F8027BB4F8BC001833DF
:1031F000AB4202F10402E5D118B101F8010BA4F8C9
:10320000BC6004F53874C8EB01014C458C44D0D146
:10321000604602B0BDE8F00F704718B101F8010B2D
:10322000A4F8BC60A75801F8017BB4F8BC00DEE745
:1032300018B101F8010BA4F8BC60A75841F8047B51
:103240000020D4E7A75807F00F0747EA0017BFB2DE
:103250001FFA87FB1BF4704FA4F8BCB005D001F82F
:10326000017B0020A4F8BC60C1E74BF47060A4F8B7
:10327000BC00BCE7E81400208CC1FF1F24BDFF1F69
:103280002DE9F00F444E454D82B04FF0000C0190F7
:10329000344606F57079DDF80480414B4FF00000AC
:1032A000E044002220854146104693F814B0BBF15B
:1032B000060F10D8DFE80BF04E64433A2F270400C6
:1032C00028B14FF0000A01F8010BA6F828A0A75872
:1032D00041F8047B00201833AB4202F10402E4D130
:1032E00020B101F8010B4FF000003085F034C8EB3D
:1032F00001014C458C4406F1F006CCD1604602B089
:10330000BDE8F00F70470028E1D04FF0000701F84A
:10331000010B3785DBE720B101F8010B4FF000000E
:103320003085A75821F8027B208DD4E70028F8D0FB
:103330004FF0000A01F8010BA6F828A0F1E720B130
:103340004FF0000701F8010B3785A75801F8017B02
:10335000208DC0E7A75807F00F0B4BEA001A1FFAA1
:103360008AFB1FFA8BFA1AF4704FA4F828A00FD02A
:103370004FF0000A01F801BB0020A6F828A0AAE738
:103380000028E2D001F8010B4FF000003085DCE7A7
:103390004AF4706020859EE700250020E46D03005C
:1033A000F46C0300704700BF704700BF704700BF58
:1033B000704700BF704700BF704700BF704700BF35
:1033C000704700BF704700BF704700BF704700BF25
:1033D000704700BF704700BF704700BF704700BF15
:1033E000704700BF704700BF704700BF704700BF05
:1033F000704700BF2DE9F8434FF00008574C584F75
:10340000002645465FFA88F0221F0023F95842F84B
:10341000041F1833F02BF9D1FF23A4F8A030E56284
:103420002563656384F8385084F8395084F8AA001D
:10343000E5632664C4F88860C4F89050C4F89450DA
:1034400084F88E50C4F8985084F88C5084F88F50CB
:1034500084F8A250A4F8A450A4F8A6502246002351
:10346000E1180233162BA1F8705002F10402166421
:103470004FF00001F4D103224FF0010C4FF0020E87
:103480000823904284F8E41084F8E5C084F8E6E06C
:1034900084F8E72084F8E83051D0092384F8E93033
:1034A00084F8EA3004F1EB0204F1E403D31A4FF09C
:1034B000000904F1B800C4F8AC50C4F8E03008F1D9
:1034C00001084946282227F093FDB8F1040FC4F8FB
:1034D000B060C4F8B4504FF0000004F1F00491D192
:1034E0002049D1F8D84381F800940023002201F547
:1034F0007A75C5E90023013C032381F8019481F822
:103500000C9081F80D9081F80E9081F81490C1F81C
:103510001890C1F82090C1F82490C1F8F093C1F838
:10352000F403C1F8FC93C1F80494C1F80090C1F809
:103530000490C1F808900B61CC61BDE8F8830622C5
:1035400004200521072384F8EB2084F8E90084F89F
:10355000EA1084F8EC3004F1ED02A5E70025002024
:10356000F46C0300D82400202DE9F04FDFF85891C7
:10357000524F85B04FF000084C4657F8045C052DBB
:1035800007EB4502C5F1040300F094804C4932F882
:10359000020B21F8020F013B581CF8D1C5F10502BE
:1035A00004EB420238466B1E35B130F8021B22F89C
:1035B000021B013B591CF8D1B4F800C057F80C3C71
:1035C0004048414C5B0F4FEA9C2CCCF13F0A1E4611
:1035D000524641464644039320F086FB524631460C
:1035E0003848032320F0DAFB06F1180BA14639F81E
:1035F000025F3448AD0AC5F13F052A46314608232B
:1036000020F072FBCAEB05035545314652462D4862
:1036100003F1010343D00CDAC5EB0A030133294857
:1036200031462A4620F0BAFB08365E4506D0AA4647
:10363000DDE7083620F0B2FB5E45F8D1224A21488A
:10364000B2F80890039A4FEA9929C9F13F0902217B
:10365000C2F1080300914A46314620F0F7F94D4582
:1036600021D0A94512DAC9EB0503013331464A4698
:10367000144820F093FB08F12008B8F1800F07F1FF
:1036800018077FF47AAF05B0BDE8F08FC5EB0903EA
:10369000013331462A460B4820F080FBEBE702233A
:1036A00020F07CFBC0E731462A460648032320F081
:1036B00075FBE0E73846044A042376E7C4E7FF1FBA
:1036C000FE23002058360020002400202DE9F04F72
:1036D0002D4987B04C6D00230DF1080CCA18526CAF
:1036E0004CF803200433102BF8D1284EDFF8A0A0AB
:1036F000DFF8A080E1460DF1030B082559F8047F9F
:103700002248B56007F178025A23736088FB0231C2
:10371000D317C3EB610303EB4303A2EB83030BF863
:10372000013F5AF8231020F001FE88FB0731FF17F4
:10373000C7EB610110350131144820F0B5FE382D7A
:10374000DCD1DFF854800025422714F0800F0CBF35
:103750002D212B210D48B560776020F0A5FD04F0E8
:103760007F03103518F80310084820F09DFD402D08
:103770004FEA1424E9D120210A4601A8FDF768FD8B
:1037800007B0BDE8F08F00BF1CF1FF1F58360020C6
:103790001C110300ABAAAA2AEC6D03002DE9F04F1F
:1037A000404C8BB0002306A8E2183E49D2F83822DC
:1037B000C2500433102BF7D1D1F88C623A4F0DF17F
:1037C00013020DF1160550F8043F783387FB0314FC
:1037D000D917C1EB640101EB4101A3EB810302F8AE
:1037E000013FAA42EFD1202205A860212F4CFDF70E
:1037F0002FFDF3B2A4FB0327BF0807EB8708C8EB34
:1038000003084FEA480C4FEA470B0CEB08020BEB9E
:103810000701274B009392008900053203312548A8
:10382000CDF80CC0082320F033FBDDF80CC0360ABD
:103830004FF00309424659461C48F3B2A0FB03046B
:10384000A40804EB84055D1B4FEA450808EB05035B
:103850004FEA440B624439440BEB040A9F0007F122
:1038600008034FEA8A0A8900920006310832009361
:1038700010480AF1060320F05BFB0F4B00937A1D02
:1038800008230AF103010B48DE4020F001FBB9F1E7
:10389000010904D027462A465946C446CCE70BB056
:1038A000BDE8F08F40060020ABAAAA2ACDCCCCCC34
:1038B000F4EA020058360020E8EA0200FDF738BEBC
:1038C000FDF736BEFDF7A6BF0E490F4A0F4838B5C3
:1038D000002302240F25CD600B700B714B618C60AF
:1038E0000C61C15842F8041F1833B3F5C07FF8D1FA
:1038F000074C04F14400FEF77DFB002384F82C31D3
:1039000038BD00BF20060020FC080020DC7003004A
:103910000009002010B5044622F0C2FE204610BD6A
:103920000B4B10B401EB410403EBC40463689342F6
:1039300003DCA3689A42B8BF134650F821205DF813
:10394000044B9A4216BF40F82130002001207047F6
:103950007CC4FF1F0B4B10B401EB410403EBC40408
:103960006368934203DCA3689A42B8BF134650F8D9
:1039700021205DF8044B9A4216BF40F82130002008
:10398000012070478CC1FF1F012870B511D1094D6E
:10399000094E2B8F6B870024284621463470FEF792
:1039A00027F82B8F746186F8344086F83640F4632C
:1039B0006B8770BD5CE2FF1F4CE3FF1F012838B529
:1039C0000DD1074D07480024038F2C7121464387F2
:1039D000FEF70EF8AC6185F8384085F83A4038BDFE
:1039E0005C0400205CE2FF1F0B4B10B401EB4104B0
:1039F00003EBC4046368934203DCA3689A42B8BF34
:103A0000134650F821205DF8044B9A4216BF40F847
:103A10002130002001207047B4460300012838B54A
:103A20000DD1074D07480024038F2C712146438791
:103A3000FDF7DEFFAC6185F8384085F83A4038BDC7
:103A400038E8FF1F5CE2FF1FF8B503280CD8DFE859
:103A500000F00C020C0C1D4C0025257521F026FAF7
:103A60001B4B25601A8F5A87F8BD1A49002501F5AE
:103A700070770020FF26C1F898000D64C1F88850C7
:103A800081F88D0081F88E0081F8380081F83900C6
:103A9000A1F8A06081F8A200A1F8A400A1F8A600F6
:103AA000A1F8A800C1F89C00C86381F88F000A46FD
:103AB0000023CC180233162BA4F8700002F1040284
:103AC0001564F6D1F031B942D5D1F8BDD824002023
:103AD0005CE2FF1F002500200B4B10B401EB4104FA
:103AE00003EBC4046368934203DCA3689A42B8BF43
:103AF000134650F821205DF8044B9A4216BF40F857
:103B00002130002001207047DC7003000378012B76
:103B100000D070474388013B072BFAD801A252F826
:103B200023F000BF753B0000653B0000133B000025
:103B3000513B0000133B0000133B0000133B00000F
:103B4000453B0000104B1A7982F001021A71E0E740
:103B50000E4B9B68002BDCD10B4A117891B90123E5
:103B600013707047094881680029D2D10268203A51
:103B7000FFF7B2BF054881680029CAD10268203228
:103B8000FFF7AABF1370704720060020000900202D
:103B9000012800D070470C4B93F850201AB1002236
:103BA00083F850209A65094BD3F8B02202F0030144
:103BB00003EB810101320020C3F8B022C1F8A0025A
:103BC000C3F8B822704700BF5CE2FF1F4006002028
:103BD00090F8DA3090F89A20022BF0B46ED0032BD4
:103BE00067D0012B60D0D0F828C0032B03D8DFE8C2
:103BF00003F0025D676290F83C703D460AB1334ABB
:103C000012783349134401EB4316002F5BD000F5C3
:103C100082727C000023F15E42F8041F0233A3424B
:103C2000F9D11FFA8CF100F5847600234FF6FF746A
:103C300041FA03F2D20758BF46F8234001339F42AE
:103C4000F6DC341F00276B1E9F4219DA05F1804312
:103C5000023B06EB830304E0BCBF59609A60A342B9
:103C60000ED0596853F804299142F5D105F18042EC
:103C7000013AA34256F822209A6005F1FF35F0D1AF
:103C80000137BD4204F10404DDDC05F18043013B52
:103C90004FF6FF7256F82330934208BF05F1FF3507
:103CA00080F80251F0BC7047D0F82CC090F84070FA
:103CB000A3E7D0F834C090F848709EE7D0F830C041
:103CC00090F8447099E700F58476DEE7FCEB02009B
:103CD00094E0FF1FF8B50378012B438802D0042B32
:103CE0004AD0F8BD013B072BFBD801A252F823F0C4
:103CF000593D0000393D0000E33C0000293D000033
:103D0000E33C0000E33C0000E33C0000113D000008
:103D1000444B93F85022002A69D093F8682282F02D
:103D2000010283F86822F8BD3E4B93F8502282F0DE
:103D3000010283F85022F8BD3A4BD3F8B02202F0CA
:103D4000030103EB810101320120C3F8B022C1F865
:103D5000A002C3F8B822F8BD324BD3F8B02202F06B
:103D6000030103EB810101320020C3F8B022C1F846
:103D7000A002C3F8B822F8BD2A4E06F52F721146EC
:103D8000284D52E8003F002BFAD141E80034002CC6
:103D9000F6D1BFF35F8F2F7E05F1200021464FF44F
:103DA000FA7227F025F9012F28D0022F0CD105F146
:103DB0002003012205F5057500E0DC68012C18BF21
:103DC000DA601433AB42F8D1BFF35F8F0022C6F83C
:103DD000BC22D6F8B03203F0030106EB81010133B7
:103DE000C6F8B032C1F8A022C6F8B832F8BD93F8D0
:103DF000542282F0010283F85422F8BD05F1340404
:103E000005F50A75082022F0EBFC54F8143C80F309
:103E10000300984218BF44F8140C1434AC42F1D19A
:103E2000D2E700BF400600200378012B438818D05A
:103E3000042B00D07047314A31480023C15842F862
:103E4000041F1833B3F55E7FF8D12E4B9A6E02F043
:103E5000030103EB8101013201209A6688651A672C
:103E60007047013B072BE5D801A252F823F000BFB1
:103E7000E13E0000AD3E0000353E00009D3E0000EA
:103E8000353E0000353E0000353E0000913E00000A
:103E90001C4B1A7882F001021A707047194B93F884
:103EA000282082F0010283F82820704716494A69C9
:103EB000531E032BA8BF03236FF002008342B8BF39
:103EC00003469342B6D00F4A4B61936E03F0030151
:103ED00002EB810101330020936688651367704708
:103EE00009494A69531C032BA8BF03236FF0020042
:103EF0008342B8BF03469A42E5D19BE708240020DD
:103F0000C84103001CF1FF1F0C2400202DE9F00F15
:103F10006B496C4C4FF0000C82B0804601F584690F
:103F2000654608EB0C07684BA1F84C503846002258
:103F300001971E7D062E15D8DFE806F096AA857D2E
:103F40006C040400D0F800B05E68A1F84C50B34592
:103F500003DB9E68B345B8BF5E468F58B74218BFB3
:103F60008E5004301833A34202F10402E1D1019FC4
:103F70008B6981F8AC50C01B4FF0010A4FF0020270
:103F80004FF0030781F8ADA081F8AE2081F8AF7043
:103F90004FF0040A4FF005024FF00607844481F801
:103FA000B0A081F8B12081F8B270002B00F08480BD
:103FB0000722082381F8B32081F8B43009220A23AC
:103FC00081F8B52081F8B6300B220C2381F8B83087
:103FD00081F8B72001F1B9030D260E205A1A1E7080
:103FE00058700F2610209E70D870A63A1126122005
:103FF0001E71587101F5847141F8602C494590D1CA
:10400000324BD3F8CC206046013A9A6102B0BDE849
:10401000F00F7047A1F84C50B0F800B05E68B3459F
:1040200003DB9E68B345B8BF5E468F58B74218BFE2
:104030008E50023096E7A1F84C50B0F900B05E689F
:10404000B345F2DBEDE7A1F84C5090F800B05E68A4
:10405000B34503DB9E68B345B8BF5E468F58B74291
:1040600018BF8E5001307DE7B1F84C60C6B106F044
:104070000F0BA1F84C505E68B34503DB9E68B34557
:10408000B8BF5E468F58B7423FF46CAF8E5069E7B9
:10409000A1F84C5090F900B05E68B345DEDBD9E77B
:1040A00090F800B06FEA0B5A6FEA1A5A0130A1F883
:1040B0004CA04FEA1B1BDEE701F1B3038CE700BF06
:1040C000B8100020C84103000040030094100020F5
:1040D0002DE9F00F4349444D82B0002301938046FF
:1040E00001F5F0791E46DDF804C0404B8E85C444CE
:1040F00064460022187D062814D8DFE800F04E5FE1
:104100003E3727040400D4F800B058688E858345F4
:1041100003DB98688345B8BF58468F58874218BF5D
:10412000885004341833AB4202F10402E2D1DDF8C6
:1041300004A0CCEB04047831A2444945CDF804A096
:10414000D1D1504602B0BDE8F00F70478E85B4F86B
:1041500000B05868834503DB98688345B8BF58466C
:104160008F58874218BF88500234DBE78E85B4F938
:1041700000B058688345F3DBEEE78E8594F800B015
:104180005868834503DB98688345B8BF58468F5805
:10419000874218BF88500134C4E7888DA8B100F069
:1041A0000F0B8E855868834503DB98688345B8BF3D
:1041B00058468F588742B5D08850B3E78E8594F91A
:1041C00000B058688345E2DBDDE794F800B06FEAA1
:1041D0000B5A6FEA1A5A0134A1F82CA04FEA1B1BA4
:1041E000E0E700BF38E9FF1FCC690300C4680300A3
:1041F0002DE9F00FDFF83892DFF838C28CB00421D7
:1042000009F1E90209F1EA0309F1EC0701914FF024
:1042100000080492029309F1EB0409F1E40A09F1A0
:10422000E50109F1E60209F1E70309F1E8060B905F
:104230000A9748460994CDF818A007910592039370
:10424000454637460B9C794BA0F85050444408949F
:104250002146002200F1280400971E7D062E15D865
:10426000DFE806F0A7BB968E7D040400D1F800B00D
:104270005E68A0F85050B34503DB9E68B345B8BFF5
:104280005E46A758B74218BFA6500431183363459D
:1042900002F10402E1D1DDF818A0079B8AF828504A
:1042A0004FF00102DDF814A083F828204FF002043B
:1042B000039B009F8AF828404FF003024FF0080448
:1042C00083F8282087F8284090F8D230DDF820A025
:1042D000032BCAEB0101884400F09380049CDDF8B5
:1042E00008A04FF0090384F8283000F213128AF86E
:1042F00028300499099CDDF828A000F58673F03178
:10430000D31A0491029A0699C0F80831F032F034B9
:104310000AF1F00AF03102920994079A059CCDF84F
:1043200028A00691DDF80CA00199F032F0340AF1D2
:10433000F00A013907920594CDF80CA007F1F007B7
:1043400000F1F00001917FF47DAFD9F808314046CB
:10435000013BC9F81C300CB0BDE8F00F7047A0F865
:104360005050B1F800B05E68B34503DB9E68B345BA
:10437000B8BF5E46A758B74218BFA650023185E7BE
:10438000A0F85050B1F900B05E68B345F2DBEDE73C
:10439000A0F8505091F800B05E68B34503DB9E680A
:1043A000B345B8BF5E46A758B74218BFA650013103
:1043B0006CE7B0F85060C6B106F00F0BA0F8505093
:1043C0005E68B34503DB9E68B345B8BF5E46A75839
:1043D000B7423FF45BAFA65058E7A0F8505091F9B0
:1043E00000B05E68B345DEDBD9E791F800B06FEA54
:1043F0000B5A6FEA1A5A0131A0F850A04FEA1B1B62
:10440000DEE7049CDDF808A04FF0040184F82810D2
:104410000999052306228AF8283081F828200A9A6B
:10442000072382F8283000F2151262E7F46C0300CB
:10443000D8240020E46D03004249434B00222DE9BB
:10444000F00384460A8515460E4603F1F0041F7DED
:10445000062F17D8DFE807F04E623B332004040034
:10446000D0F80090D3F804800D85C14504DB9F6827
:10447000B945B4BFC846B8468F58474518BF42F83B
:10448000068004301833A34202F10402DFD1CCEBE2
:104490000000BDE8F00370470D85B0F80090D3F838
:1044A0000480C14504DB9F68B945B4BFC846B8461F
:1044B0008F58474518BF42F806800230E2E70D8565
:1044C000B0F90090D3F80480C145F1DBEBE70D852E
:1044D00090F80090D3F80480C14504DB9F68B9458B
:1044E000B4BFC846B8468F58474518BF42F8068043
:1044F0000130C7E70F8DCFB107F00F093585D3F82D
:104500000480C14504DB9F68B945B4BFC846B846BE
:104510008F584745B6D042F80680B3E70D8590F92D
:104520000090D3F80480C145DDDBD7E790F8009018
:104530006FEA09586FEA18580130A6F828804FEA48
:104540001919DCE708FBFF1F906E03002DE9F84303
:10455000032832D8DFE800F0023302023B4B1A6A2C
:104560004FF002094FF003084FF0010C0427072613
:1045700006250524092008214A4583F8749483F808
:10458000758483F876C483F8777483F8786483F845
:10459000795483F87A4483F87B0483F87C1436D00A
:1045A00042451CD0624544D003F27D40284A294947
:1045B000821A501EC3F87024C860BDE8F883254DE8
:1045C00025480024038F2C7121464387FDF710FAFC
:1045D00085F84C4085F84E40EC62BDE8F883162023
:1045E00012271326142515241721182283F8810475
:1045F00083F87D7483F87E6483F87F5483F8804465
:1046000083F8821483F8832403F28440CEE70F20DA
:104610000D250E241021112283F87F0483F87D5488
:1046200083F87E4483F8801483F8812403F2824067
:10463000BCE70A200B210C2283F87D0483F87E144A
:1046400083F87F2403F59060B0E700BFA8E3FF1F65
:104650001CE8FF1F080400205CE2FF1F2DE9F00F9B
:10466000904982B091F834300193042781F8A0700A
:104670000E2781F8AA70019F4FF0010A4FF002093E
:104680004FF003084FF0000B0526062507240822EB
:104690000923844681F89DA00A204FF00B0A81F877
:1046A0009E9081F89F804FF00C094FF00D08022F6B
:1046B00081F89CB081F8A16081F8A25081F8A340F4
:1046C00081F8A42081F8A53081F8A60081F8A7A080
:1046D00081F8A89081F8A98040F0E0804FF00F0B9E
:1046E0004FF0100A4FF011094FF01208132714264B
:1046F0001525162417201822192381F8ABB081F84C
:10470000ACA04FF01A0B4FF01B0A81F8AD9081F866
:10471000AE804FF01C094FF01D0881F8AF7081F892
:10472000B0601E271F2681F8B15081F8B2402025C5
:10473000212481F8B30081F8B4202220232281F8BB
:10474000B530242381F8BD4081F8B6B081F8B7A018
:1047500081F8B89081F8B98081F8BA7081F8BB60AF
:1047600081F8BC5081F8BE0081F8BF2081F8C030CC
:1047700001F1C1044C4E4D4D4D4BA41B0020671E52
:104780000246C1F89840AF60A1F8940005469C3EEF
:1047900003F55E7460461F7D062F18D8DFE807F02A
:1047A00053693F3622040400D0F80090D3F8048007
:1047B000A1F89450C14504DB9F68B945B4BFC84611
:1047C000B8468F58474518BF42F806800430183362
:1047D000A34202F10402DED1CCEB000002B0BDE83E
:1047E000F00F7047A1F89450B0F80090D3F804800F
:1047F000C14504DB9F68B945B4BFC846B8468F5869
:10480000474518BF42F806800230E0E7A1F894500F
:10481000B0F90090D3F80480C145F0DBEAE7A1F8D5
:10482000945090F80090D3F80480C14504DB9F6851
:10483000B945B4BFC846B8468F58474518BF42F877
:1048400006800130C3E7B1F89470DFB107F00F09BB
:10485000A6F89450D3F80480C14504DB9F68B9459D
:10486000B4BFC846B8468F584745B0D042F8068016
:10487000ADE7A1F8945090F90090D3F80480C145B9
:10488000DADBD4E790F800906FEA09586FEA18581D
:104890000130A6F894804FEA1919DBE701F1AB0467
:1048A00068E700BF0C240020A82400201CF1FF1F93
:1048B000C84103004649474B00222DE9F0038446D6
:1048C000A1F8402015460E4603F5C0741F7D062F43
:1048D00018D8DFE807F052683E3521040400D0F80C
:1048E0000090D3F80480A1F84050C14504DB9F68D4
:1048F000B945B4BFC846B8468F58474518BF42F8B7
:10490000068004301833A34202F10402DED1CCEB5E
:104910000000BDE8F0037047A1F84050B0F80090E7
:10492000D3F80480C14504DB9F68B945B4BFC846CD
:10493000B8468F58474518BF42F806800230E1E775
:10494000A1F84050B0F90090D3F80480C145F0DBE5
:10495000EAE7A1F8405090F80090D3F80480C145F0
:1049600004DB9F68B945B4BFC846B8468F58474571
:1049700018BF42F806800130C4E7B1F84070DFB1DB
:1049800007F00F09A6F84050D3F80480C14504DBB6
:104990009F68B945B4BFC846B8468F584745B1D09F
:1049A00042F80680AEE7A1F8405090F90090D3F8A5
:1049B0000480C145DADBD4E790F800906FEA09582B
:1049C0006FEA18580130A6F840804FEA1919DBE762
:1049D00000090020DC7003002DE9F00F032800F22D
:1049E0008E80DFE800F0028F0202574B93F83420EC
:1049F00000250124022003214FF0040B4FF0050A8B
:104A00004FF006094FF007084FF0080C09270A2657
:104A100083F89C5083F89D400B250C2483F89E005E
:104A200083F89F100D200E21022A83F8A0B083F88E
:104A3000A1A083F8A29083F8A38083F8A4C083F890
:104A4000A57083F8A66083F8A75083F8A84083F880
:104A5000A90083F8AA1074D14FF00F094FF0100885
:104A60004FF0110C12271326142515241620172198
:104A700018224FF0190B4FF01A0A83F8AB9083F805
:104A8000AC804FF01B094FF01C0883F8ADC083F8D1
:104A9000AE704FF01D0C1E2783F8AF6083F8B05046
:104AA0001F26202583F8B14083F8B200212422205C
:104AB00083F8B31083F8B4202321242283F8BE00A6
:104AC00083F8B5B083F8B6A083F8B79083F8B880C0
:104AD00083F8B9C083F8BA7083F8BB6083F8BC5020
:104AE00083F8BD4083F8BF1083F8C02003F1C100F4
:104AF000164A1749821A501EC3F898208860BDE8EC
:104B0000F00F7047104A124B127C12485C6D83F80C
:104B1000342002EB42018900002A00EB01020CBFA5
:104B2000802600264558506891689D6346EA042413
:104B300000225C65D86319641A701A63BDE8F00F2F
:104B4000704703F1AB00D3E70C240020A824002019
:104B50001CF1FF1F283F03002DE9F007814C824A1A
:104B60000023A38384461D462646117D062916D8B8
:104B7000DFE811F0C000D700B500A5009A000700DB
:104B8000070001685768A583B94203DB9768B942FB
:104B9000B8BF0F46E158B94218BF9F5104300433E3
:104BA0001C2B02F11802E0D17049CCEB000001F59A
:104BB000FA7800250CEB00066D4A0D82344600237E
:104BC000177D062F17D8DFE807F02367544C390408
:104BD0000400D4F800A0D2F804900D82CA4504DB8A
:104BE0009768BA45B4BFD146B946CF584F4518BFAC
:104BF00041F8039004340433102B02F11802DFD182
:104C00001431A41B41452044D4D1BDE8F0077047BE
:104C10000F8A002F00F0958007F00F0A0D82D2F85E
:104C20000490CA4504DB9768BA45B4BFD146B9467B
:104C3000CF584F45DFD041F80390DCE70D82B4F840
:104C400000A0D2F80490CA4504DB9768BA45B4BF07
:104C5000D146B946CF584F4518BF41F803900234AA
:104C6000C9E70D82B4F900A0D2F80490CA45F1DB7F
:104C7000EBE70D8294F800A0D2F80490CA4504DB5B
:104C80009768BA45B4BFD146B946CF584F4518BF0B
:104C900041F803900134AEE70D8294F900A0D2F8F8
:104CA0000490CA45F1DBEBE7A58301885768B94258
:104CB0000BDAE158B94218BF9F5102306FE7A58364
:104CC000B0F900105768B942F3DB9768B942B8BF32
:104CD0000F46E158B94218BF9F5102305FE7A583E4
:104CE00001785768B94222DAE158B94218BF9F519A
:104CF000013054E7A18B81BB01786FEA01576FEA5D
:104D000017570130B78309095768B94203DB976821
:104D1000B942B8BF0F46E158B9423FF440AF9F5186
:104D20003DE7A58390F900105768B942DCDB97682E
:104D3000B942B8BF0F46E158B94218BF9F51013080
:104D40002DE794F800A06FEA0A596FEA1959013467
:104D5000A1F810904FEA1A1A61E701F00F01B5832C
:104D6000D2E700BF40060020404503006006002057
:104D7000306E03008249834B00222DE9F00F8446F8
:104D8000A1F8642015460E4603F516741F7D062F04
:104D900018D8DFE807F08EA57A715D040400D0F81A
:104DA0000090D3F80480A1F86450C14504DB9F68EB
:104DB000B945B4BFC846B8468F58474518BF42F8F2
:104DC000068004301833A34202F10402DED16E4C97
:104DD0000A6A0D68CB6825604FF0000B4FF0020A9D
:104DE0004FF003094FF00108042707260625CCEBF6
:104DF000000081F869B04FF0050C4FF0090BA1F8E5
:104E0000703052454FF0080381F87C3481F874A467
:104E100081F8759481F8768481F8777481F87864E4
:104E200081F8795481F87AC481F87BB4544B00F04E
:104E300093804A4575D0424567D003F27D43534A7B
:104E40009B1A5A1EE260C1F87034BDE8F00F70473B
:104E5000A1F86450B0F80090D3F80480C14504DB99
:104E60009F68B945B4BFC846B8468F58474518BF74
:104E700042F806800230A5E7A1F86450B0F900902E
:104E8000D3F80480C145F0DBEAE7A1F8645090F85C
:104E90000090D3F80480C14504DB9F68B945B4BFD6
:104EA000C846B8468F58474518BF42F806800130BB
:104EB00088E7B1F86470E7B107F00F09A6F864500D
:104EC000D3F80480C14504DB9F68B945B4BFC84628
:104ED000B8468F5847453FF475AF42F8068071E7F2
:104EE000A1F8645090F90090D3F80480C145D9DB53
:104EF000D3E790F800906FEA09586FEA185801302C
:104F0000A6F864804FEA1919DAE70A260B250C2265
:104F100083F87D6483F87E5483F87F2403F59063DF
:104F20008DE74FF012094FF013084FF0140C1527BE
:104F300016261725182283F87D9483F87E8483F83B
:104F40007FC483F8807483F8816483F8825483F883
:104F5000832403F2844372E74FF00D0C0E270F26D3
:104F60001025112283F87DC483F87E7483F87F6452
:104F700083F8805483F8812403F282435FE700BF03
:104F8000A8E3FF1FE4CDFF1F080400201CE8FF1F5B
:104F90002DE9F00F7849794C4FF0000C82B0804633
:104FA00001F51069654608EB0C07754BA1F88450B4
:104FB0003846002201971E7D062E15D8DFE806F040
:104FC0009CB08B8372040400D0F800B05E68A1F836
:104FD0008450B34503DB9E68B345B8BF5E468F5827
:104FE000B74218BF8E5004301833A34202F10402B6
:104FF000E1D1019F0B7E81F81852C01B4FF0050ACA
:105000004FF00602844481F819A281F81A22002B7D
:1050100040F09A8001F21B234FF00A021A7091F8B7
:105020002820002A00F0A6800C225A700D200E22A3
:105030009870DA700433172618201E7058701926DD
:105040001A209E70D8701B261C201E7158710F26C6
:1050500010209E71D871112612201E7258721326CC
:1050600014209E72D872152616205A1A1E73587371
:105070001D261E209E73D873A2F206221F26202012
:105080001E74587401F5107141F82C2C49458AD1D1
:105090003C4BD3F844226046013A9A6102B0BDE825
:1050A000F00F7047A1F88450B0F800B05E68B345C7
:1050B00003DB9E68B345B8BF5E468F58B74218BF42
:1050C0008E50023090E7A1F88450B0F900B05E68CD
:1050D000B345F2DBEDE7A1F8845090F800B05E68CC
:1050E000B34503DB9E68B345B8BF5E468F58B742F1
:1050F00018BF8E50013077E7B1F88460C6B106F072
:105100000F0BA1F884505E68B34503DB9E68B3457E
:10511000B8BF5E468F58B7423FF466AF8E5063E724
:10512000A1F8845090F900B05E68B345DEDBD9E7A2
:1051300090F800B06FEA0B5A6FEA1A5A0130A1F8E2
:1051400084A04FEA1B1BDEE74FF0070381F81B32F8
:1051500001F21E234FF00A024FF008074FF0090A30
:1051600081F81C7281F81DA21A7091F82820002A7B
:105170007FF45AAF01335EE7F0F1FF1FCC49030023
:10518000B4460300C0F1FF1F2DE9F00F984A99487B
:105190000023C15842F8041F1833B3F55E7FF8D1DD
:1051A000954A92F8345000240120022103234FF045
:1051B000040B4FF0050A4FF006094FF007084FF0B7
:1051C000080C09270A2682F89C4082F89D000B24CF
:1051D0000C2082F89E1082F89F300D210E23022DA4
:1051E00082F8A0B082F8A1A082F8A29082F8A380F1
:1051F00082F8A4C082F8A57082F8A66082F8A74061
:1052000082F8A80082F8A91082F8AA304BD14FF09A
:105210000F0B4FF0100A4FF011094FF012084FF02A
:10522000130C14271526162417201821192382F889
:10523000ABB082F8ACA04FF01A0B4FF01B0A82F80B
:10524000AD9082F8AE804FF01C094FF01D0882F837
:10525000AFC082F8B0704FF01E0C1F2782F8B1600B
:1052600082F8B2402026212482F8B30082F8B410DC
:105270002220232182F8B530242382F8B6B082F8A8
:10528000B7A082F8B89082F8B98082F8BAC082F8E4
:10529000BB7082F8BC6082F8BD4082F8BE0082F824
:1052A000BF1082F8C030554B534800210824042712
:1052B00007264FF0010C022DDF631E6483F828C01F
:1052C00019705960D9601961D96283F834109963F3
:1052D0001963596559679967D967C3F88010C3F88E
:1052E000841083F88810C3F88C1083F8911083F829
:1052F000921083F8941083F8951083F8971083F830
:10530000981083F89A1083F89B1083F89D1083F807
:10531000904083F8934083F8964083F8994083F84F
:105320009C4000F19C0683F89E104FF0240783F800
:105330009F4083F8A01083F8A11056D14FF00F0BB7
:105340004FF0100A4FF011094FF012084FF0130CF4
:1053500014251524162180F8C07080F8ABB01727EB
:105360004FF0180B80F8ACA080F8AD904FF0190A00
:105370004FF01A0980F8AE8080F8AFC080F8B050C6
:1053800080F8B14080F8B21080F8B37080F8B4B003
:1053900080F8B5A080F8B6904FF01B084FF01C0CB9
:1053A0001D251E241F2120274FF0210B4FF0220A1C
:1053B0004FF0230980F8B78080F8B8C080F8B95062
:1053C00080F8BA4080F8BB1080F8BC7080F8BDB09F
:1053D00080F8BEA080F8BF90C130801B411EC2F88B
:1053E00098009960BDE8F00F7047AB30F5E700BF5B
:1053F00008240020C84103000C2400201CF1FF1FDA
:105400004388102B30B41CD0202B01D030BC704707
:10541000284B1A7932B31B69274A808852F8231027
:105420000F2BF3D8254C03EB430504EBC50501FA1C
:1054300080F06C68A04231DAA142E7D042F8234004
:10544000E4E71D4B9A68002AE0D11A49848809785C
:105450000F2953F82120D9D802FA84F2184630BC1B
:10546000FEF73ABBB0F9042018699C681044A042CA
:1054700012DBD9688842A8BF084659691861002A1A
:1054800011440C4D0FDB012904DDE9688842ACBFF3
:10549000032102215961B9E72046EEE7AC68A0423A
:1054A000B8BF0446C8E70129F4DC8442ACBF002140
:1054B0000121EFE72006002000090020DC70030036
:1054C0004388102B30B421D0202B01D030BC704742
:1054D000274B1A7C22B39968DA698088C1EB0111E5
:1054E00003EBC10328330A2A53F82210EED8214CCB
:1054F00002EB420504EBC50501FA80F06C68A0429E
:105500002ADAA142E2D043F82240DFE7184BB0F993
:1055100004109A680A4482F302029A6030BC704711
:10552000B0F90420D8695C691044A04212DB996983
:105530008842A8BF0846196AD861002A11440C4D58
:105540000FDB012904DDA9698842ACBF03210221D8
:105550001962BBE72046EEE7AC68A042B8BF04463C
:10556000CFE70129F4DC8442ACBF00210121EFE741
:1055700010E9FF1FC46803004388102B30B42ED0FD
:10558000202B01D030BC7047554B93F85022002A95
:1055900034D093F86822002A6ED0D3F84C22D3F886
:1055A0001C12D3F87432808802EB820201EB820273
:1055B000032B52F82310E5D84A4C03EB430504EBC8
:1055C000C50501FA80F06C68A04203DBAC68A0421C
:1055D000B8BF0446A142D5D042F82340D2E7404BA1
:1055E000B0F90410D3F84C220A44182AA8BF182294
:1055F00022EAE272C3F84C2230BC704793F854227E
:10560000CAB1D3F86022808853F82210062AB9D88C
:10561000354C02EB420504EBC50501FA80F06C68DD
:10562000A04203DBAC68A042B8BF0446A142A9D0A7
:1056300043F82240A6E7B0F90420D3F86012D3F86B
:1056400058421144A14238DBD3F85C028142B8BF12
:105650000846D3F86412C3F86002002A1144204DB2
:105660002FDB012905DDD5F85C128842ACBF032190
:105670000221C3F8641285E7B0F90420D3F874124C
:10568000D3F86C421144A14219DBD3F87002814275
:10569000B8BF0846D3F87812C3F87402002A114440
:1056A0000F4D15DB012905DDD5F870128842ACBF1E
:1056B00003210221C3F8781264E72046C9E7204697
:1056C000E8E70129D5DC8442ACBF00210121D0E705
:1056D0000129EFDC8442ACBF00210121EAE700BFD1
:1056E00040060020306E0300404503004388102B25
:1056F00030B41CD0202B01D030BC70472D4B1A7910
:105700007AB31B692C4A808852F82310092BF3D8EE
:105710002A4C03EB430504EBC50501FA80F06C68E5
:10572000A0423ADAA142E7D042F82340E4E7214B15
:1057300021491B7853B14A68B0F90430134483F30C
:1057400008039A42D8D04B6030BC70470A68B0F961
:105750000430134483F308039A42CDD00B6030BC6D
:105760007047B0F9042018699C681044A04212DB0D
:10577000D9688842A8BF084659691861002A1144AF
:105780000C4D0FDB012904DDE9688842ACBF032121
:1057900002215961B0E72046EEE7AC68A042B8BFED
:1057A0000446BFE70129F4DC8442ACBF002101219B
:1057B000EFE700BF3401002008FBFF1F906E0300DD
:1057C0004388102B2DE9F0035FD0202B02D0BDE8D9
:1057D000F0037047534B1A7C002A69D09A68D96944
:1057E000848802EB421203EBC2022432114491F886
:1057F000AC10122952F8210074D90629E7D190691A
:1058000082F8B2104FF0000C012702260325042471
:10581000052182F8ACC082F8AD7082F8AE6082F8E3
:10582000AF5082F8B04082F8B110002870D00C213F
:105830000727082609250A240B2082F8B81082F8C9
:10584000B37082F8B46082F8B55082F8B64082F83E
:10585000B70002F1B901881AA0F1A7044FF00D09B1
:105860004FF00E084FF00F0C102711261225A63806
:1058700081F8009081F8018081F802C0CF700E712C
:105880004D71C2F8A8009C61A1E7264BB0F9041045
:105890009A680A4482F3020202EB421103EBC1014F
:1058A0009A60D1F8CC20013A9A61BDE8F0037047C4
:1058B000B0F90420D8695C691044A04221DB9969E1
:1058C0008842A8BF0846196AD861002A1144154DBC
:1058D00021DB012904DDA9698842ACBF0321022133
:1058E000196274E7104D01EB410605EBC60600FA9C
:1058F00084F47568AC4206DAA84218BF42F8215019
:105900007BE72046DFE7B568AC42B8BF2546F3E742
:1059100002F1B3019FE70129E2DC8442ACBF002120
:105920000121DDE794100020004003002DE9F04F35
:10593000744E8BB096F83480002306ACF218526C8B
:105940001A510433102BF9D10020FAF79FFE0028DA
:1059500000F0BF806C4800210C2280231EF0ECF97F
:10596000069BDFF8BC91684D684F783389FB0321B3
:10597000DA17C2EB610202EB4202A3EB8203284674
:1059800057F8231002236B60AB601EF0CFFC6B68EE
:105990005F4A063352F828106B6028461EF0C6FC9A
:1059A0006B6896F828200633002A00F084800DF1F9
:1059B0002408AA4654F8042F5348783289FB021E63
:1059C000D117C1EB6E0101EB4101A2EB810206335D
:1059D00057F822106B601EF0A9FC444502D0DAF89B
:1059E0000430E7E7F2683469DFF838A136780596C5
:1059F000141BE31C039204930F26039942480AEBFD
:105A000004030A1B574293F89C305741414A5AF805
:105A1000238003EB430302EBC30B059BDBF80C1065
:105A2000002F06F102094FF0020208BF0023C5F85B
:105A300008906A6002931EF079FCDBF81020C5F82C
:105A400008907E21696006F10C0952B352F82810C3
:105A50002D481EF0B1FC029A72B93FB10B2300939E
:105A600032462948002180231EF0D2F8049A0134DE
:105A7000A2421DDB4E46C0E7DBF80820DBF804300D
:105A8000904513D0244A511D984518BF11460B4626
:105A900000931D485B21A9F10B0205231EF0F8F9C4
:105AA000DBE7194841461EF009FCD4E71B4BEFE742
:105AB0000BB0BDE8F08F09AFA84654F8041F124898
:105AC00006336B601EF050FDBC428BD0D8F804301A
:105AD000F3E70120FAF7DAFD00287FF43BAF02205C
