:1000000000800020BD010000B9AB010071AB010010
:1000100071AB010071AB010071AB010071AB01006C
:1000200071AB010071AB010071AB0100B9AB010014
:10003000B9AB010071AB0100B9AB010061AB0100CC
:10004000B9AB0100B9AB0100B9AB0100B9AB01001C
:10005000B9AB0100B9AB0100B9AB0100B9AB01000C
:10006000B9AB0100B9AB0100B9AB0100B9AB0100FC
:10007000B9AB0100B9AB0100B9AB0100B9AB0100EC
:10008000B9AB0100B9AB0100B9AB0100B9AB0100DC
:10009000B9AB0100B9AB0100B9AB0100B9AB0100CC
:1000A000B9AB0100B9AB0100B9AB0100B9AB0100BC
:1000B000B9AB0100B9AB0100B9AB0100B9AB0100AC
:1000C000B9AB0100B9AB0100B9AB0100B9AB01009C
:1000D000B9AB0100B9AB0100B9AB0100B9AB01008C
:1000E000B9AB0100B9AB0100B9AB0100B9AB01007C
:1000F000B9AB010039CB0100B9AB010095D20100C9
:10010000B9AB010011D80100B9AB0100B9AB0100D6
:10011000B9AB0100B9AB0100B9AB0100B9AB01004B
:10012000B9AB0100B9AB0100B9AB0100B9AB01003B
:10013000B9AB0100B9AB0100B9AB0100B9AB01002B
:10014000B9AB0100B9AB0100B9AB0100B9AB01001B
:1001500079C0010091C00100A9C00100C1C0010027
:10016000B9AB010025B30100B9AB0100B9AB010087
:10017000B9AB0100B9AB0100B9AB0100B9AB0100EB
:10018000B9AB0100B9AB0100B9AB0100B9AB0100DB
:10019000B9AB0100B9AB0100B9AB0100B9AB0100CB
:1001A000B9AB0100B9AB0100B9AB0100B9AB0100BB
:1001B000B9AB0100B9AB0100B9AB0100574B4CF230
:1001C000205210B51A804DF628121A8000BF00BFC9
:1001D0001AF0F6FC524B4FF010621A60514A9A60C6
:1001E000514ADA60A3F53043203B1A6812F480725A
:1001F00004D14E490A604FF4A8521A604C4B1A7849
:10020000110703D51A7842F008021A70494B4A4C7C
:100210004A482A221A704A4A00239918A14203D256
:10022000195899500433F8E7464B474900228B424E
:1002300002D243F8042BFAE74448454900235A58B0
:100240001A500433B3F5DE7FF9D1424B424A802184
:1002500003F8011B9342FBD1404B3C4A1A60404BD0
:100260008A221A70A3F5805324225A70A0221A7091
:100270009A799207FCD59A79D406FCD4394A9379B5
:1002800003F00C03082B374BF9D103221A714622D5
:100290005A719A799006FCD5324A9179314B4906C8
:1002A000FBD5314A4FF08271116009215160202243
:1002B0001A709A7902F00C020C2AFAD12B4B2C4AB4
:1002C0001A602C4B2C4A1A6000225A60072243F80D
:1002D000042C2A4AC3F80C2D62B61AF0DFFE134B29
:1002E0001B68DA0705D526481AF07CFE254B264AFE
:1002F0001A60264B1B785B0609D5224C224A2368DC
:10030000934204D11E481AF06DFE002323601FF0B3
:100310009FFE1AF05BFC1CF019F8FEE70E2005406A
:1003200030800440823F04000100002B14D00340C1
:1003300002D0074000E007407CDDFF1FA0FA02006A
:100340006087FF1F80DDFF1F543000200082FF1FE9
:100350000000000000E400E05FE400E008ED00E0E1
:1003600000500640004006404480044004800440A1
:10037000C010050014E000E0BFD401000000202000
:10038000BA765D581CE00340A5C3945A00F00740BC
:10039000FFFFFFFFFFFFFFFFFFFFFFFFFFFFFFFF6D
:1003A000FFFFFFFFFFFFFFFFFFFFFFFFFFFFFFFF5D
:1003B000FFFFFFFFFFFFFFFFFFFFFFFFFFFFFFFF4D
:1003C000FFFFFFFFFFFFFFFFFFFFFFFFFFFFFFFF3D
:1003D000FFFFFFFFFFFFFFFFFFFFFFFFFFFFFFFF2D
:1003E000FFFFFFFFFFFFFFFFFFFFFFFFFFFFFFFF1D
:1003F000FFFFFFFFFFFFFFFFFFFFFFFFFFFFFFFF0D
:10040000FFFFFFFFFFFFFFFFFFFFFFFFDEF9FFFF23
:1004100010B5054C237833B9044B13B10448AFF33E
:1004200000800123237010BD80DDFF1F000000004D
:1004300098FA020008B5064B1BB106480649AFF30F
:1004400000800648036813B1054B03B1984708BD07
:100450000000000098FA020084DDFF1F7CDDFF1F12
:100460000000000038B5002105464FF0FF32234858
:1004700019F008FE214810214FF0FF3219F00CFE50
:100480001E4804214FF0FF3219F010FE1B480321D3
:100490004FF0FF3219F014FE4FF0FF3217481021D1
:1004A00019F018FE15484FF0FF3119F027FE1348D8
:1004B0004FF0FF3119F018FE10484FF0FF3119F0DE
:1004C00027FE0F4B0D48002413214FF0FF321C6014
:1004D00019F028FE0B4B0C4A1D602146A2F11003B7
:1004E00043F8041B9342FBD1084A0021A2F11003F8
:1004F00043F8041B9342FBD138BD00BFB0DDFF1FA2
:100500009CDDFF1F14DFFF1FB0DDFF1F28DFFF1F73
:10051000884207DA044B081A1B684FF4400191FB2C
:10052000F0F11981704700BF14DFFF1F014819F077
:100530007BBD00BFB0DDFF1F70B42B4C2378C0F52E
:100540007F40FF301904002B3AD041F00043274A86
:1005500043F010035363D36A03F47043B3F5405F71
:10056000F9D8D1B180B240F08050204A01435163A4
:10057000D36A03F47043B3F5405FF9D81B49CB6AE3
:100580001A4A13F0F00FFAD0936BD36A174913F09D
:10059000F00FFAD08B6B70BC7047154C134B226870
:1005A00080B240F0C0504FF080551170DD621A46A5
:1005B0005863D36ADB00FCD5236801221A70DDE79B
:1005C0000B4A0A4B12684FF0805610251170DE62FC
:1005D0001A465D63D36A03F47043B3F5405FF9D8FC
:1005E00021780904BDE700BF302E002000C0024082
:1005F0002C2E002070B42B4C2378C0F57F40FF30A8
:100600001904002B3AD041F00043274A43F012036B
:100610005363D36A03F47043B3F5405FF9D8D1B1A3
:1006200080B240F08050204A01435163D36A03F402
:100630007043B3F5405FF9D81B49CB6A1A4A13F0EF
:10064000F00FFAD0936BD36A174913F0F00FFAD07A
:100650008B6B70BC7047154C134B226880B240F016
:10066000C0504FF080551170DD621A465863D36A4E
:10067000DB00FCD5236801221A70DDE70B4A0A4B28
:1006800012684FF0805612251170DE621A465D63C3
:10069000D36A03F47043B3F5405FF9D821780904B5
:1006A000BDE700BF302E002000C002402C2E0020ED
:1006B00070B42B4C2378C0F57F40FF301904002B19
:1006C0003AD041F00043274A43F014035363D36AFE
:1006D00003F47043B3F5405FF9D8D1B180B240F074
:1006E0008050204A01435163D36A03F47043B3F549
:1006F000405FF9D81B49CB6A1A4A13F0F00FFAD0C1
:10070000936BD36A174913F0F00FFAD08B6B70BC60
:100710007047154C134B226880B240F0C0504FF028
:1007200080551170DD621A465863D36ADB00FCD530
:10073000236801221A70DDE70B4A0A4B12684FF05A
:10074000805614251170DE621A465D63D36A03F485
:100750007043B3F5405FF9D821780904BDE700BFC5
:10076000302E002000C002402C2E002070B42B4CF4
:100770002378C0F57F40FF301904002B3AD041F0B8
:100780000043274A43F016035363D36A03F47043CC
:10079000B3F5405FF9D8D1B180B240F08050204A23
:1007A00001435163D36A03F47043B3F5405FF9D852
:1007B0001B49CB6A1A4A13F0F00FFAD0936BD36A35
:1007C000174913F0F00FFAD08B6B70BC7047154CC3
:1007D000134B226880B240F0C0504FF0805511702A
:1007E000DD621A465863D36ADB00FCD52368012218
:1007F0001A70DDE70B4A0A4B12684FF08056162537
:100800001170DE621A465D63D36A03F47043B3F578
:10081000405FF9D821780904BDE700BF302E0020E1
:1008200000C002402C2E0020404B2DE9F047012152
:1008300018600A201AF0EEFB092001211AF0EAFBE9
:10084000092001211AF0E0FB394D3A483A4EDFF811
:1008500014913A4C0023194640222B601FF024FFCC
:10086000374A384B1168DFF800E1374841F4805AC5
:100870004FF038484FF400714FF0784C0127C2F820
:1008800000A0C3F80090C3F80C80C3F810C0CEF8E5
:10089000001037701C600378D8075BBF02F53F5229
:1008A0001C322A4A4FF4107111609A0754BF284A2B
:1008B000284A4FF400715B07116032D4264B4FF485
:1008C00010721A60254C4FF6FF7383F3100318461D
:1008D00023606360A360E360FFF72EFE6068FFF7AC
:1008E00089FEA068FFF7E4FEE068FFF73FFF94E8A9
:1008F00002102B680F4AA66822F81310E06803F173
:10090000080703F1100403F11801013303F0070392
:1009100022F817C02B6022F8146022F81100BDE8FD
:10092000F0870F4B4FF400721A60CBE77CDFFF1F9C
:1009300068DFFF1F28DFFF1F302E0020000C1F8004
:100940003C80044000C00240282E002008C0044023
:100950001CB004400CC0044014B004406CDFFF1F06
:1009600004C0044001401F8010B004401549164BDC
:10097000164870B40E68164D164C4FF4107246F4BB
:1009800080560E602A60226018601A6842F4406245
:100990001A601A6851040DD442F480414FF0384473
:1009A00041F001014FF078401960DC60186170BCC3
:1009B0001A6070474FF038414FF07842D96070BCF0
:1009C0001A6170473C80044000C0024000001F8054
:1009D00018B0044014B00440F0B5264C2649274D09
:1009E00083B04FF47A73022600930C2720467822B6
:1009F0003C23A760666019F00FFA21496660162350
:100A0000A3600B68A3FB05234A68A2FB0502896863
:100A1000A1FB05171B480097642101FB03F1A0FB14
:100A20000171490901912046174919F0F5F9174953
:100A300066602023A3604A68A2FB05320B68A3FB13
:100A400005038968A1FB055011490090204619F063
:100A5000E3F9104A104B12681B68104966602A259A
:100A60002046A56019F0D8F934236660A36003B06E
:100A7000F0BD00BF702C0020E841020022222202BB
:100A8000A0DFFF1F89888888F841020090DFFF1FE0
:100A9000104202008CDFFF1F9CDFFF1F204202007C
:100AA0002DE9F041DFF8AC80234F244ED8F8003018
:100AB000234C18883A68336822490225A0EB122299
:100AC0004FF00C0E20461B0AC4F808E0656019F0D0
:100AD000A3F9D8F800307A68588873681A496560B5
:100AE0004FF0160EA0EB12221B0A2046C4F808E0B5
:100AF00019F092F9D8F80030BA689888B3681349A9
:100B000065604FF0200EA0EB12221B0A2046C4F8AD
:100B100008E019F081F9D8F80030FA68D888F3684D
:100B200065602A25A0EB1222A560204608491B0A11
:100B3000BDE8F04119F070B918DFFF1FA0DDFF1FFD
:100B4000702C0020304202003C4202004842020069
:100B50005442020014DFFF1F30B5144C83B0002153
:100B60004023204600930A46802318F009FE002205
:100B70000C2320460E496260A36019F075F80D48F9
:100B80000D494268022516236560A360A2FB01326D
:100B90000368A3FB01538068A0FB01100749009084
:100BA000204619F039F903B030BD00BF702C002089
:100BB0006042020080DFFF1F222222026442020004
:100BC0000D4A116808B541F080710C4B11601A682C
:100BD00042F001021A60182001211AF01BFA1920B4
:100BE00001211AF017FA0649064B20204FF4002283
:100BF00008601A6008BD00BFFCED00E0001000E0D6
:100C000008F00F4048F00F402DE9F043044683B050
:100C10003848394FDFF8EC8019F0EAF93D4646468E
:100C2000D8F80828D8F80C38D31A022B2AD0D6F8CE
:100C3000083803F0010303F5007356F8231009B3D5
:100C4000DFF8C4900122484618F0BEFBEA1BD21020
:100C50004FF0020E0132092348462849C9F804E042
:100C6000C9F808E019F0D8F84846296818F0FCFFE0
:100C70006B689847484618F0B5FBD6F8083801333A
:100C8000C6F80838002004F16001D4F8E020D4F858
:100C9000E4309A4219D0D4F8E43003F00F0201EBAB
:100CA000C20201335288C4F8E430082A1DD0042A55
:100CB000EBD1AB68DBB1EB68CBB1D4F8E020D4F872
:100CC000E4309A4205F10805E5D10028A8D00023B8
:100CD0000B4AC4F8E430C4F8E03013680193019B78
:100CE000C4F8E83003B0BDE8F0830120CDE7024D41
:100CF000CBE700BF78420200E44202008C420200CF
:100D00000C2D002060240020702C002010B4094815
:100D1000094C0A4A00234FF0FF312360A360616051
:100D20000360416083605160136093605DF8044B21
:100D3000704700BF90DFFF1FA0DFFF1F80DFFF1F96
:100D4000F8B50E4C04F12007257866682846022184
:100D50001AF060F908342846314602221AF0F2F8F7
:100D6000BC42F1D1064B074A00211960A2F11003E1
:100D700043F8041B9342FBD1F8BD00BF344302008B
:100D8000ACDFFF1FC0DFFF1F104B196810B411B19B
:100D900000221A60012158680C4A10B100205060EE
:100DA00002209A68094C014312B10022A260042279
:100DB000DB6806480A4313B10023C3600823044CD0
:100DC000134323605DF8044B704700BFB0DFFF1F83
:100DD000ACDFFF1FFFFFFFFF2DE9F84F26A7D7E984
:100DE0000067DFF8A8A0DFF8A8B0254D4FF00A098A
:100DF0004FF000084FF0FF3414E01EF083FE21494D
:100E00001EF0D4FE1EF03EFA04460D461CF050FFC4
:100E100006460F46204629461CF084FF09F10109C9
:100E200004460D460022184B304639461EF07EFA25
:100E30001EF05EFD1FF080F80022134B4AF80800F8
:100E4000294620461EF072FA1EF052FD1FF074F87B
:100E50008BFB09234FEAE972C2EB63030AEB08023A
:100E600008F1080803EB4303B8F1600F5060A9EBE9
:100E70008300C2D1BDE8F88FADB161B9C59B493ED1
:100E8000FFFFEFBF920A063F00003C40C0DFFF1F9C
:100E9000ABAAAA2AAFF300802DE9F04F83461C23AA
:100EA00085B02B482B4D8A46914618F049FD9BF89A
:100EB000003005EBC30155F833204B680AEB020CF8
:100EC00009EB030847460124E046234900912048E6
:100ED000A8F10301FA1E082318F078FC1BF804603F
:100EE0001B4855F8362005EBC6030AEB02065B6883
:100EF00009EB030CCDF800C041463A4601343346B5
:100F0000CDF80CC018F0B2FC032CDDF80CC002D0F8
:100F1000B0466746D9E79BF800200E490C4851F8C7
:100F2000323001EBC202374652684A4453440092C1
:100F300039466246664618F099FC074B0093F91E45
:100F4000F21E0348082318F041FC05B0BDE8F08FFD
:100F5000702C0020C0DFFF1FE04102007A4A1378A6
:100F600070B4032B40D8DFE803F0B77C4102774927
:100F7000774B0D687748013505F0070505F1180135
:100F800003EB4101C5F10703013B31F8024B20F8A7
:100F9000024F5E1CF8D1704BC5F1080003EB400016
:100FA0006B1E3DB16D4931F8024F20F8024B013BF9
:100FB0005C1CF8D16A4D6B4C2E68A4F11003002123
:100FC00033F8020FA3420144FAD1674B06F1C00087
:100FD00081F4F821C1F38431013623F8101006F0B2
:100FE0003F0600232E60137070BC70475749584B62
:100FF0000D685848013505F0070505F1100103EBB0
:101000004101C5F10703013B31F8024B20F8024FC3
:101010005E1CF8D1504BC5F1080003EB40006B1E7D
:101020003DB1524931F8024F20F8024B013B5C1CA4
:10103000F8D14B4B4B4C1D680021A4F1100333F841
:10104000020FA3420144FAD105F1800481F4F82192
:101050004548C1F38431032320F81410137070BC89
:1010600070473A493A4B0D683A48013505F0070593
:1010700005F1080103EB4101C5F10703013B31F81C
:10108000024B20F8024F5E1CF8D1334BC5F108002B
:1010900003EB40006B1E3DB1354931F8024F20F89B
:1010A000024B013B5C1CF8D12D4B2E4C1D680021DE
:1010B000A4F1100333F8020FA3420144FAD105F161
:1010C000400481F4F8212848C1F38431022320F838
:1010D0001410137070BC70471C4B1D491D681D48CF
:1010E000013505F0070501EB4501C5F10703013B9B
:1010F00031F8024B20F8024F5E1CF8D1164BC5F1B7
:10110000080003EB40006B1E3DB11A4931F8024F55
:1011100020F8024B013B5C1CF8D1114B114C1D68AF
:101120000021A4F1100333F8020FA3420144FAD1C5
:1011300081F4F8210C48C1F38431012320F8151003
:10114000137070BC704700BF30E2FF1F68DFFF1FE5
:1011500028DFFF1F1EE2FF1F20E2FF1F56DFFF1FD9
:1011600034E2FF1F2EE2FF1F20E0FF1F46DFFF1FBC
:1011700036DFFF1F26DFFF1F2DE9F843FFF7EEFEE6
:10118000DFF8B8802B4C2C4800230121D8F8002030
:10119000066801321A4402F03F0202F1400C34F8B2
:1011A0001270FD1003EBC51507F0070716F8059040
:1011B00001FA07F749EA0707775534F81CC00668B3
:1011C00003F140074FEAEC0507EBC5150CF0070CDF
:1011D00016F8059001FA0CFC49EA0C0C06F805C05B
:1011E00002F18005066834F815C00CF1200C4FEAB6
:1011F000EC0503EBC5150CF0070C16F8059001FA89
:101200000CFC49EA0C0C06F805C0C032056834F83D
:1012100012602036F21007EBC21206F00706AF5C30
:1012200001FA06F601333E433F2BAE54AED1BDE882
:10123000F88300BF20E0FF1F702C002034E2FF1F66
:101240007A4A137870B4032B40D8DFE803F0B77CF8
:1012500041027749774B0D687748013505F007055E
:1012600005F1180103EB4101C5F10703013B31F81A
:10127000024B20F8024F5E1CF8D1704BC5F10800FC
:1012800003EB40006B1E3DB16D4931F8024F20F871
:10129000024B013B5C1CF8D16A4D6B4C2E68A4F1EB
:1012A0001003002133F8020FA3420144FAD1674B27
:1012B00006F1C00081F4FC21C1F34531013623F869
:1012C000101006F03F0600232E60137070BC7047AC
:1012D0005749584B0D685848013505F0070505F189
:1012E000100103EB4101C5F10703013B31F8024B4B
:1012F00020F8024F5E1CF8D1504BC5F1080003EBFB
:1013000040006B1E3DB1524931F8024F20F8024BAC
:10131000013B5C1CF8D14B4B4B4C1D680021A4F1E8
:10132000100333F8020FA3420144FAD105F18004FF
:1013300081F4FC214548C1F34531032320F8141002
:10134000137070BC70473A493A4B0D683A48013502
:1013500005F0070505F1080103EB4101C5F107039D
:10136000013B31F8024B20F8024F5E1CF8D1334BA1
:10137000C5F1080003EB40006B1E3DB1354931F863
:10138000024F20F8024B013B5C1CF8D12D4B2E4C38
:101390001D680021A4F1100333F8020FA342014499
:1013A000FAD105F1400481F4FC212848C1F345310C
:1013B000022320F81410137070BC70471C4B1D4999
:1013C0001D681D48013505F0070501EB4501C5F114
:1013D0000703013B31F8024B20F8024F5E1CF8D1A5
:1013E000164BC5F1080003EB40006B1E3DB11A49D6
:1013F00031F8024F20F8024B013B5C1CF8D1114B35
:10140000114C1D680021A4F1100333F8020FA34210
:101410000144FAD181F4FC210C48C1F34531012388
:1014200020F81510137070BC704700BF30E2FF1F2A
:1014300068DFFF1F28DFFF1F1EE2FF1F20E2FF1FE4
:1014400056DFFF1F34E2FF1F2EE2FF1F20E0FF1FC9
:1014500046DFFF1F36DFFF1F26DFFF1F2DE9F041AC
:10146000FFF7EEFE1B4FDFF874C01B490022012678
:10147000DCF800303C680133134403F03F0303F110
:10148000400531F8130031F815504FEAE50800EB3C
:10149000C81005F0070514F8008006FA05F548EABB
:1014A0000505255403F1C000803331F8104031F8B0
:1014B00013303868E510403303EBC51304F007041C
:1014C000C55C06FA04F401322C433F2AC454CFD140
:1014D000BDE8F081702C002020E0FF1F34E2FF1FE8
:1014E000F0B4084F0026084D0FCDBC190FC40FCD26
:1014F0000FC495E803002836A02E84E80300F2D13B
:10150000F0BC704780E3FF1FFC4302000328D2BFFA
:10151000034B044B043800EB800003EBC000704722
:1015200080E3FF1FD4430200704700BF38B5094B6A
:101530000C46054653F821100748224618F058FD7E
:1015400004F00103C4F3400485F8413085F85140AC
:1015500038BD00BF685502002867020010B54FF47F
:101560007A7303FB01F1B1F5FA6F38BF4FF4FA61FA
:1015700082B004464160054818F03AFD044B1B68F0
:101580000193019BC4F8E83002B010BD4867020027
:101590000C2D002000232DE9F041192103600546A0
:1015A000274EFFF7DBFF2C4606F11008FF2756F801
:1015B000040FC0B2A060022119F02CFD464527732C
:1015C00004F10804F3D105F1280305F138010022E4
:1015D00043F8042B99424FF00004F9D11020022166
:1015E0002C876C8785F83C40FF2619F013FD0F20EF
:1015F000022119F00FFD1620022185F8404085F8E0
:1016000041406C64AC6485F84D6085F84C6019F01D
:1016100001FD1520022119F0FDFC85F85D6085F8BB
:101620005C60C5F8E44085F8504085F851406C6531
:10163000AC65C5F8E040C5F8E840BDE8F08100BF02
:10164000146702002DE9F043DFF8CC8083B0044634
:1016500089466E460127D4F8E020D4F8E4309A4257
:1016600025D0D4F8E430658F03F00F0204EBC202FA
:10167000603292E8030086E80300BDF802200133DF
:101680001542C4F8E43094F83C3021D12BBB9DF8CE
:101690000000022825D003282CD0012825D0D4F81A
:1016A000E020D4F8E430C8F800709A42D9D1194B40
:1016B000D4F8E8201B680093009963688A1A9A425C
:1016C00020D9012384F83C30002003B0BDE8F0832A
:1016D00025EA02026287002BBDD0002384F83C304B
:1016E000B9E7012A0BD0082AEFD0D9F8283068468C
:1016F0009847D4E7D9F82C3068469847CFE784F864
:101700003C20CCE794F83C0080F0010003B0BDE839
:10171000F08300BF0C2D0020C8C9FF1F2DE9F04F3A
:10172000634A644C1368644E89B08A460693069BEC
:10173000049303F6E831039005912546B346039AD6
:101740005B49138F0A68079213F0040F14BF4FF020
:1017500003084FF0010803F0030213F0080F18BF4D
:101760004FF00208033A53425341DDF81C908AF8C7
:101770000030D4F80828D4F80C38D31A022BF8D04B
:10178000D5F8083803F0010303F5007355F823106A
:101790000029EED04848012217F016FE0C228023C3
:1017A0004548002117F070FF0227434843497760FE
:1017B000B76018F059FA11233F4841497760B36088
:1017C00018F052FAB8F1030F60D01D233A48CBF855
:1017D00004703C49CBF8083018F046FAB8F1020F13
:1017E0004BD09AF80030022129227160B260002BA0
:1017F0003ED13523B360049B2F4833490222C3EB0B
:1018000009077260029218F02FFAB7F57A7F029AF0
:101810001ED305990092C9EB0103C3F314133E22B2
:101820002548002117F0E2FD234817F0DBFDD4F82E
:10183000082840F6E73301329F42C4F808287FF6B3
:101840007EAF039A138F5387404609B0BDE8F08FEF
:1018500080230092184800213E2217F0C7FD164849
:1018600017F0C0FDD4F808380133C4F8083866E72B
:101870001148164918F0F8F9BBE70C2300930E48FD
:1018800041461B22802317F093FEAAE70C23009306
:10189000394609480F22802317F08AFE1D23064887
:1018A0000849CBF80470CBF8083018F0DDF998E758
:1018B0000C2D002060240020702C0020686702009E
:1018C0007C67020090670200B8670200A46702000C
:1018D00008B519F0B3F803480349044ABDE80840C5
:1018E0001EF0A6BB20E4FF1F2915000040BDFF1F0E
:1018F000002301220270C0F82431C0F82831C0F85A
:101900002C31C0F8303100F120026FF03F03D901D3
:101910000133402B22F8021FF9D170472DE9F00F57
:10192000BDF8205000295BD0002B59D0002A57D099
:101930004FF6FF749C4035EA040451D00126002480
:101940000670A14615F0010F4FEA550506D000EBD1
:10195000490631F81470778009F1010901349C427D
:10196000F0D1002109F1004ADFF888800AF1FF3A3E
:101970000B460C4600F1020C00F1A00700F1A20694
:101980001AE0B5F5004FA8BF47F6FF752DDB4045BF
:1019900023DBB0F5004FA8BF47F6FF7027DB01330C
:1019A0004B4501F1010124BF01340023402927F8F0
:1019B000025F26F8020D15D0C3EB0A003CF9135064
:1019C0003CF910B002FB0455E043454502FB00B072
:1019D000D7DA404548F20105DBDA48F20100DEE7DC
:1019E00000230370BDE8F00F7047ADB2CFE780B2BF
:1019F000D5E700BF0180FFFF2DE9F0030478002C3C
:101A000000F09180D0F82C41891AA1427EDA00F1D1
:101A100028067B270FFA81F8002F11DD7D1006EBD9
:101A2000450C36F91540444505DC68E036F914707C
:101A3000474566DD25466C1006EB440C002DF5D1BC
:101A400000F12209C9EB06094FEA6909A9F102046C
:101A5000A4B20FFA89F925B2A9456ADB4FF6FF7CDB
:101A60004FF4804600EB45050FFA86F8B5F9227071
:101A7000CF1B002FB8BF7F42BFB23DB2454504F136
:101A80000105B8BFA446ACB225B2B8BF3E46A945D1
:101A9000E8DA0FFA8CF11FFA8CF64F1E4C1C00EBA3
:101AA000410100EB4404498CB4F9225000EB470794
:101AB0000CB2B7F8228005EBC5054FF00709C4EB5F
:101AC000C40409271E4411FB095118FB074436B210
:101AD00009112411002EC0F83011C0F82C4126DD68
:101AE0007E2EA8BF7E2600EB4606B6F92210C0F86F
:101AF0002411C0F828318818BDE8F00370472C463F
:101B00003D462C1B671E0CF1020685E7D0F83041DC
:101B1000A1423FF77CAFD0F828419C427FF477AFD9
:101B2000D0F82411E7E70846BDE8F0037047012626
:101B3000D9E74FF6FF7600246FF001074FF0FF3131
:101B4000ADE700BF002908DB7F29D6BF00EB4101CC
:101B5000B0F92001B1F922007047B0F922007047B6
:101B60000021022303808160418081808181017492
:101B7000C1738173017500F1160200F11E0322F892
:101B8000021B9342FBD100F12601002223F8022B15
:101B90009942FBD100F128030022383043F8042B8E
:101BA0009842FBD1704700BF404B414A10B483FBC1
:101BB00000430344C417C4EB233302FB0300441166
:101BC0000B2907D8DFE801F0172029323B444D5696
:101BD0005D066B64374A611C52F8211052F82420CC
:101BE000891A00F01F0000FB01F002EB5010984032
:101BF0005DF8044B7047304A611C52F8211052F8CE
:101C00002420490A520AEBE72B4A611C52F82110A2
:101C100052F82420C909D209E2E7274A611C52F888
:101C2000211052F8242049095209D9E7224A611C9F
:101C300052F8211052F8242009091209D0E71E4A4F
:101C4000611C52F8211052F82420C908D208C7E7B5
:101C5000194A611C52F8211052F824208908920870
:101C6000BEE7154A611C52F8211052F82420490899
:101C70005208B5E7104A611C52F8211052F824208E
:101C8000AEE70E4A611C52F8211052F82420A7E753
:101C90000B4A611C52F8211052F82420A0E7094A8F
:101CA000611C52F8211052F8242099E7D1000DD080
:101CB00050ECFFFF9C810200207F0200287A020086
:101CC00018840200A47C02002DE9F04F04468BB07A
:101CD0000F462AB990F81480B8F1000F00F0CE80BA
:101CE00004F1280304F13800002143F8041B984252
:101CF0004FF00002F9D1A06A2275A1890691DDF8A2
:101D00001880E37CA288667CA17C658805920FFA26
:101D100088F80027C8F1000A0997CDF810808DF8DF
:101D200027303A46CDF81CA002978DF825608DF833
:101D30002610A3462346049F561C06F00301002FDD
:101D400004EB410140F38A80C98ADDF8188011FB59
:101D50000800844F4FEA253C0CEB0C2C010EBC44D0
:101D60000CF201184F1C1CF801901CF807A018F881
:101D700001C018F80780CDF80C8020F07F404FEAB2
:101D80000C28C9EB0A0ACDF8008000FB0AFADDF83E
:101D90000C80CDF804A0DDF800A0CCEB080C4FEAD5
:101DA0000929AAF50048DDF804A0CDF80CC0A9F572
:101DB00000490CFB00FC09EB2A4908EB2C481FFAF0
:101DC00089F90FFA88F80FFA89FC4FEA051ACCEB6B
:101DD000080C1FFA8AFA0AFB0CFC09EB2C491FFAC3
:101DE00089F9DFF884811FFA89FCA3F81EC018F86E
:101DF000011018F807707F1A0902A1F500410FFAC7
:101E00008CFC07FB00F701EB274722440CF5004C44
:101E10000299DF824FEA2C2CA9F5004882F83CC0D9
:101E2000C9B1B4F91E2002F500420A418A4088EA8D
:101E30000208A3F84080059A042E1544ADB232463C
:101E40000BF1040B03F1020315D009A9DBF82800FC
:101E50008E5D02966FE7A3F84080ECE7D11C01F09D
:101E6000030104EB4101DDF81CA0B1F91610561C6A
:101E70000AFB01006DE70BB0BDE8F08FB0F80090F1
:101E800008464946FFF790FEA36AA57B217CCDF862
:101E9000248006463344E07BA362DFF8D0C0A6630B
:101EA00042468DF825508DF826008DF827102346E0
:101EB00065B9D96A01323144032AD96203F10403B6
:101EC00013D009A911444D78002DF2D05CF82510EB
:101ED000A6FB0151D86A2D0E45EA012101320844C2
:101EE000032AD86203F10403EBD1E3898BB9A56817
:101EF000002D1EDB38464946FFF756FEA36AED0368
:101F00001844421953191D44A062E26265632363B9
:101F1000F3E6A3680A2B22DDE56A216B626BA06AF7
:101F20000A3B9B001D4419441344E562216363632B
:101F3000E3E641F2B03202FB05F54FEAE5381E4612
:101F4000254638464946FFF72FFEAB6A043618444B
:101F5000102EA862C8EB070705F10405F1D1A06AAD
:101F6000CBE600BF1468020025790200C4670200B6
:101F70002DE9F00F4FF07F48B8FBF3F8581EC3B3BC
:101F80000B131D4C03EB03231F194FEA01191FFA12
:101F900089F907F2011C0023190E4C1C7E5C17F80E
:101FA00004B01CF801501CF804A0C6EB0B0123F090
:101FB0007F443602A6F50046C5EB0A0A04FB01F190
:101FC0002D0206EB2141A5F500450AFB04F489B278
:101FD00005EB24440EB224B2A41B09FB04F4A1F5C2
:101FE000004101EB2441013822F8021B411C43440B
:101FF000D2D1BDE8F00F704714680200014B186899
:10200000704700BF9C0C0020704700BF044B054A7E
:102010001B68106803EB830303EB830318447047CA
:102020000C2300203C220020704700BF014B1868A1
:1020300040007047EC010020704700BF014B18685A
:1020400080007047BC160020012802D1014B0022FD
:102050001A747047F0E9FF1F704700BF014B186802
:1020600080007047A8020020012802D1014B002205
:102070001A74704768120020704700BF014B18683F
:10208000400070474C220020704700BF014B186889
:1020900080007047C0EBFF1F704700BF704700BF54
:1020A000014B1868704700BF40090020704700BF0F
:1020B000014B1868704700BF60020020704700BFE6
:1020C000704700BF014B1868704700BF50010020E7
:1020D000704700BF012802D1014B00221A717047DE
:1020E000A8EBFF1F014B1868800070470CE5FF1F2D
:1020F000704700BF0021194BF0B40A4601270226A1
:102100000325042403F80C1C0131042943F82C2C6A
:1021100043F8282C43F8242C43F8202C43F8182C9F
:1021200043F8142C43F8102C03F8042C03F8037C18
:1021300003F8026C03F8015C43F8084C4FF0000010
:1021400003F12C03DED1064BDA6B1860013A1871EB
:10215000986018615861DA60F0BC70475423002021
:102160001023002000207047002070470020704797
:10217000012802D1014B00221A7170471023002060
:10218000704700BF2DE9F0072D4B2E4C00228246F0
:10219000A4F85C20104616465146A44603F50A757D
:1021A00093F81480B8F1060F0FD8DFE808F0331E5B
:1021B0001E040429290018B101F8010BA4F85C6081
:1021C000A75821F8027BB4F85C001833AB4202F147
:1021D0000402E5D120B1002301F8010BA4F85C3022
:1021E000CAEB0100BDE8F007704718B101F8010B18
:1021F000A4F85C60A75801F8017BB4F85C00E4E740
:1022000018B101F8010BA4F85C60A75841F8047BF1
:102210000020DAE7A75807F00F0747EA0017BFB218
:102220001FFA87F919F4704F05D001F8017B0020DF
:10223000ACF85C60C9E749F47060ACF85C00C4E7D6
:102240006CC7FF1F90E6FF1F2DE9F00F594D5A4A4A
:1022500000232B8380461C461E462F46117D0629EF
:102260000DD8DFE801F08E3030040439390014B1A4
:1022700000F8014B2E83E95820F8021B2C8B043305
:10228000182B02F11802E9D11CB1002300F8014B10
:102290002B834A4DC8EB000005F10C0405F50079CD
:1022A000002608EB000C0023454A268261469B4627
:1022B00092F814A0BAF1060F22D8DFE80AF04F37DF
:1022C00037161643430014B100F8014B2E83E9582A
:1022D00000F8011B2C8BD2E714B100F8014B2E83C0
:1022E000E95840F8041B0024C9E7BBF1000F02D0F5
:1022F00001F801BBAE83E75821F8027BB4F810B0B7
:102300000433102B02F11802D2D1BBF1000F02D01E
:1023100001F801BBAE831434CCEB01014C450844F9
:1023200005F11405BDD1BDE8F00F7047BBF1000FFA
:1023300002D001F801BBAE83E75801F8017BB4F885
:1023400010B0DDE7BBF1000F02D001F801BBAE8396
:10235000E75841F8047B4FF0000BD1E7E75807F04E
:102360000F0747EA0B17BFB21FFA87FB1BF4704F2A
:10237000A4F810B014D001F8017B4FF0000BAE832D
:10238000BEE7E95801F00F0141EA041189B28CB2AD
:1023900014F4704F09D000F8011B00243E836EE74F
:1023A0004BF4706BA4F810B0AAE744F470643C835B
:1023B00065E700BF5C09002044A202006C09002010
:1023C0009CC202002DE9F00F344C354D82B04FF025
:1023D000000C019004F585696646DDF80480314BF8
:1023E000A4F86860E04400224146104693F814A027
:1023F000BAF1060F0FD8DFE80AF039242404042FBD
:102400002F0018B101F8010BA4F86860A75821F853
:10241000027BB4F868001833AB4202F10402E5D144
:1024200018B101F8010BA4F8686004F50574C8EB55
:1024300001014C458C44D0D1604602B0BDE8F00F9C
:10244000704718B101F8010BA4F86860A75801F8AB
:10245000017BB4F86800DEE718B101F8010BA4F8BD
:102460006860A75841F8047B0020D4E7A75807F01C
:102470000F0747EA0017BFB21FFA87FB1BF4704F24
:10248000A4F868B005D001F8017B0020A4F86860CA
:10249000C1E74BF47060A4F86800BCE7C4EBFF1F11
:1024A0005CCCFF1FECC9FF1F2DE9F00F324C334D00
:1024B00082B000230193834604F5C0781E46DDF800
:1024C00004C02F4B2685DC4400226146104693F859
:1024D0001490B9F1060F0DD8DFE809F03624240472
:1024E000042D2D0010B101F8010B2685A75821F805
:1024F000027B208D1833AB4202F10402E7D110B108
:1025000001F8010B2685DDF804A0CCEB0101603455
:102510008A444445CDF804A0D1D1504602B0BDE86C
:10252000F00F704710B101F8010B2685A75801F88C
:10253000017B208DDEE710B101F8010B2685A7583D
:1025400041F8047B0020D5E7A75807F00F0949EAB6
:10255000001A1FFA8AF91FFA89FA1AF4704FA4F8C0
:1025600028A004D001F8019B00202685C2E74AF488
:1025700070602085BEE700BF18EAFF1FE4870200F5
:10258000F48602002DE9F00F384ADFF8EC80384D70
:102590004FF0000C58F8044C402C08EB0403C4F135
:1025A0003F065FD033491E44013B13F8010F01F889
:1025B000010FB342F9D1C4F140032B44414634B179
:1025C0001C4411F8010B03F8010BA342F9D10CF1E3
:1025D0000804E4104FEAEC00E401C00104F17F07B5
:1025E00000F17F063F23116815F80390C3EB070A3B
:1025F00009F0020B01F80A904FEAD91A11684AEA69
:10260000C91A4AEA4B1A09F0040B19444AEACB0AE0
:1026100009F0080B4AEA4B0A09F0100B01F8049084
:102620004AEA5B0109F0200A41EADA0109F04009AF
:1026300041EA5919C3EB060A11685FFA89F901F8F2
:102640000A9011681944013B01F80090591CCAD145
:102650000CF1100CBCF1400F08F584789AD1BDE85C
:10266000F00F70474146024BAAE700BF702C0020D4
:102670002812002027120020541300202DE9F00F0B
:10268000344C354D82B04FF0000C019004F5846954
:102690006646DDF80480314BA4F84C60E04400222B
:1026A0004146104693F814A0BAF1060F0FD8DFE8A0
:1026B0000AF039242404042F2F0018B101F8010B6B
:1026C000A4F84C60A75821F8027BB4F84C001833EA
:1026D000AB4202F10402E5D118B101F8010BA4F8F4
:1026E0004C6004F58474C8EB01014C458C44D0D196
:1026F000604602B0BDE8F00F704718B101F8010B59
:10270000A4F84C60A75801F8017BB4F84C00DEE750
:1027100018B101F8010BA4F84C60A75841F8047BEC
:102720000020D4E7A75807F00F0747EA0017BFB209
:102730001FFA87FB1BF4704FA4F84CB005D001F8CA
:10274000017B0020A4F84C60C1E74BF47060A4F852
:102750004C00BCE78C1200202C8A02006488020026
:102760002DE9F00F344C354D82B04FF0000C019044
:1027700004F587696646DDF80480314BA4F85060A3
:10278000E04400224146104693F814A0BAF1060F27
:102790000FD8DFE80AF039242404042F2F0018B1E1
:1027A00001F8010BA4F85060A75821F8027BB4F897
:1027B00050001833AB4202F10402E5D118B101F820
:1027C000010BA4F8506004F50774C8EB01014C45F7
:1027D0008C44D0D1604602B0BDE8F00F704718B10C
:1027E00001F8010BA4F85060A75801F8017BB4F878
:1027F0005000DEE718B101F8010BA4F85060A758AB
:1028000041F8047B0020D4E7A75807F00F0747EAF8
:102810000017BFB21FFA87FB1BF4704FA4F850B02B
:1028200005D001F8017B0020A4F85060C1E74BF40B
:102830007060A4F85000BCE7C402002030BFFF1F46
:1028400050BDFF1F2DE9F00F344C354D82B04FF0D5
:10285000000C019004F5FC696646DDF80480314BFC
:10286000A4F86460E04400224146104693F814A0A6
:10287000BAF1060F0FD8DFE80AF039242404042F38
:102880002F0018B101F8010BA4F86460A75821F8D3
:10289000027BB4F864001833AB4202F10402E5D1C4
:1028A00018B101F8010BA4F8646004F5FC74C8EBDE
:1028B00001014C458C44D0D1604602B0BDE8F00F18
:1028C000704718B101F8010BA4F86460A75801F82B
:1028D000017BB4F86400DEE718B101F8010BA4F83D
:1028E0006460A75841F8047B0020D4E7A75807F09C
:1028F0000F0747EA0017BFB21FFA87FB1BF4704FA0
:10290000A4F864B005D001F8017B0020A4F864604D
:10291000C1E74BF47060A4F86400BCE7A0F0FF1FAF
:1029200024C60200CCC302002DE9F0072D4B2E4C2B
:1029300000228246A4F89020104616465146A4462E
:1029400003F5587593F81480B8F1060F0FD8DFE837
:1029500008F0331E1E040429290018B101F8010BE8
:10296000A4F89060A75821F8027BB4F890001833BF
:10297000AB4202F10402E5D120B1002301F8010BC2
:10298000A4F89030CAEB0100BDE8F007704718B119
:1029900001F8010BA4F89060A75801F8017BB4F886
:1029A0009000E4E718B101F8010BA4F89060A75873
:1029B00041F8047B0020DAE7A75807F00F0747EA41
:1029C0000017BFB21FFA87F919F4704F05D001F84C
:1029D000017B0020ACF89060C9E749F47060ACF866
:1029E0009000C4E7509B0200502200202DE9F00126
:1029F000264E274A002333841D461F460446B4460C
:102A0000117D06290DD8DFE801F02C1A1A040423E1
:102A1000230015B104F8015B3784F15824F8021B38
:102A2000358C0433202B02F11802E9D11DB10023AB
:102A300004F8015B3384201ABDE8F001704715B13A
:102A400004F8015B3784F15804F8011B358CE8E782
:102A500015B104F8015B3784F15844F8041B0025D4
:102A6000DFE7F15801F00F0141EA051189B28DB29B
:102A700015F4704F05D004F8011B0025ACF8207048
:102A8000CFE745F47065ACF82050CAE790F8FF1F17
:102A9000E4A002002DE9F0032F4B304C0022A28667
:102AA000914616460146A44603F59C7593F814809A
:102AB000B8F1060F10D8DFE808F0371F1F04042B09
:102AC0002B00B9F1000F02D001F8019BA686A75890
:102AD00021F8027BB4F834901833AB4202F10402BF
:102AE000E4D1B9F1000F03D0002301F8019BA386C4
:102AF000081ABDE8F0037047B9F1000F02D001F8E1
:102B0000019BA686A75801F8017BB4F83490E3E74F
:102B1000B9F1000F02D001F8019BA686A75841F831
:102B2000047B4FF00009D7E7A75807F00F0747EAE3
:102B30000917BFB21FFA87F919F4704F06D001F8D0
:102B4000017B4FF00009ACF83460C5E749F47069C7
:102B5000ACF83490C0E700BFF49E0200080C0020DF
:102B60002DE9F00F344C354D82B04FF0000C019040
:102B700004F534696646DDF80480314BA4F8B4608E
:102B8000E04400224146104693F814A0BAF1060F23
:102B90000FD8DFE80AF039242404042F2F0018B1DD
:102BA00001F8010BA4F8B460A75821F8027BB4F82F
:102BB000B4001833AB4202F10402E5D118B101F8B8
:102BC000010BA4F8B46004F53474C8EB01014C4562
:102BD0008C44D0D1604602B0BDE8F00F704718B108
:102BE00001F8010BA4F8B460A75801F8017BB4F810
:102BF000B400DEE718B101F8010BA4F8B460A758DF
:102C000041F8047B0020D4E7A75807F00F0747EAF4
:102C10000017BFB21FFA87FB1BF4704FA4F8B4B0C3
:102C200005D001F8017B0020A4F8B460C1E74BF4A3
:102C30007060A4F8B400BCE7C0160020E4D3FF1F06
:102C4000ACCFFF1F704700BF704700BF704700BF89
:102C5000704700BF704700BF704700BF704700BF9C
:102C6000704700BF704700BF704700BF704700BF8C
:102C7000704700BF704700BF704700BF704700BF7C
:102C8000704700BF704700BF704700BF2DE9F04F8D
:102C9000DFF85891524F85B04FF000084C4657F876
:102CA000045C052D07EB4502C5F1040300F0948098
:102CB0004C4932F8020B21F8020F013B581CF8D1A5
:102CC000C5F1050204EB420238466B1E35B130F8FF
:102CD000021B22F8021B013B591CF8D1B4F800C0BA
:102CE00057F80C3C4048414C5B0F4FEA9C2CCCF110
:102CF0003F0A1E46524641464644039316F0C4FC22
:102D0000524631463848032316F0E6FC06F1180B0C
:102D1000A14639F8025F3448AD0AC5F13F052A469D
:102D20003146082316F0B0FCCAEB05035545314681
:102D300052462D4803F1010343D00CDAC5EB0A03D8
:102D40000133294831462A4616F0C6FC08365E454E
:102D500006D0AA46DDE7083616F0BEFC5E45F8D17F
:102D6000224A2148B2F80890039A4FEA9929C9F1FA
:102D70003F090221C2F1080300914A46314616F08C
:102D800035FB4D4521D0A94512DAC9EB05030133C6
:102D900031464A46144816F09FFC08F12008B8F165
:102DA000800F07F118077FF47AAF05B0BDE8F08F08
:102DB000C5EB0903013331462A460B4816F08CFC5B
:102DC000EBE7022316F088FCC0E731462A460648A6
:102DD000032316F081FCE0E73846044A042376E733
:102DE000B0E8FF1F3E220020702C0020402200206F
:102DF0002DE9F04F2D4987B04C6D00230DF1080CE3
:102E0000CA18526C4CF803200433102BF8D1284E0A
:102E1000DFF8A0A0DFF8A080E1460DF1030B082544
:102E200059F8047F2248B56007F178025A2373608D
:102E300088FB0231D317C3EB610303EB4303A2EB1F
:102E400083030BF8013F5AF8231016F00DFF88FB9F
:102E50000731FF17C7EB610110350131144817F036
:102E600035F8382DDCD1DFF854800025422714F0E6
:102E7000800F0CBF2D212B210D48B560776016F017
:102E8000B1FE04F07F03103518F80310084816F05F
:102E9000A9FE402D4FEA1424E9D120210A4601A8B9
:102EA000FDF7FAFF07B0BDE8F08F00BFECEFFF1FA2
:102EB000702C002080640200ABAAAA2A20A5020080
:102EC0002DE9F04F404C8BB0002306A8E2183E4994
:102ED000D2F83422C2500433102BF7D1D1F88862D3
:102EE0003A4F0DF113020DF1160550F8043F7833F7
:102EF00087FB0314D917C1EB640101EB4101A3EB7C
:102F0000810302F8013FAA42EFD1202205A86021E7
:102F10002F4CFDF7C1FFF3B2A4FB0327BF0807EB5B
:102F20008708C8EB03084FEA480C4FEA470B0CEB45
:102F300008020BEB0701274B009392008900053232
:102F400003312548CDF80CC0082316F03FFCDDF80E
:102F50000CC0360A4FF00309424659461C48F3B2EA
:102F6000A0FB0304A40804EB84055D1B4FEA45089D
:102F700008EB05034FEA440B624439440BEB040AA7
:102F80009F0007F108034FEA8A0A89009200063180
:102F90000832009310480AF1060316F067FC0F4B45
:102FA00000937A1D08230AF103010B48DE4016F056
:102FB0000DFCB9F1010904D027462A465946C446FA
:102FC000CCE70BB0BDE8F08F5C090020ABAAAA2AC1
:102FD000CDCCCCCCE0410200702C0020D8410200C6
:102FE000FEF7CAB8FEF7C8B8FEF738BA0E490F4A5E
:102FF0000F4838B5002302240C25CD600B700B71EF
:103000004B618C600C61C15842F8041F1833B3F552
:103010009C7FF8D1074C04F13800FEF7A1FD002396
:1030200084F8803038BD00BFA8EBFF1F040C0020DF
:10303000F49E0200080C002010B5044619F0F2F8C6
:10304000204610BD0B4B10B401EB410403EBC4044C
:103050006368934203DCA3689A42B8BF134650F8F2
:1030600021205DF8044B9A4216BF40F82130002021
:10307000012070476CC7FF1F4388082B04D1034B06
:103080001A7982F001021A71704700BF10230020E4
:103090000B4B10B401EB410403EBC404636893428F
:1030A00003DCA3689A42B8BF134650F821205DF8AC
:1030B000044B9A4216BF40F821300020012070478F
:1030C000ECC9FF1F0B4B10B401EB410403EBC4042C
:1030D0006368934203DCA3689A42B8BF134650F872
:1030E00021205DF8044B9A4216BF40F821300020A1
:1030F0000120704750BDFF1F012808D1044A054B2D
:10310000118F518700221A719A6183F83420704719
:1031100020E4FF1F00090020012808D1044A054BC4
:10312000118F518700221A719A6183F834207047F9
:1031300020E4FF1F20E9FF1F012800D070470B4B40
:1031400093F850201AB1002283F850209A65084B5A
:10315000D3F89C2202F0030103EB8101013200202D
:10316000C3F89C22C1F88C02704700BF20E4FF1F07
:103170005C090020F8B50378012B438802D0042BAA
:1031800046D0F8BD013B072BFBD801A252F823F033
:10319000F5310000D931000083310000C931000051
:1031A000833100008331000083310000B131000021
:1031B000414B93F84C22002A63D093F8642282F0AA
:1031C000010283F86422F8BD3B4B93F84C2282F055
:1031D000010283F84C22F8BD374BD3F89C2202F051
:1031E000030103EB810101320120C3F89C22C1F8E5
:1031F0008C02F8BD304BD3F89C2202F0030103EBA4
:10320000810101320020C3F89C22C1F88C02F8BD74
:10321000294E06F529721146274D52E8003F002B32
:10322000FAD141E80034002CF6D1BFF35F8F2F7D37
:1032300005F11C0021464FF4FA721DF035FA012FFA
:1032400026D0022F0CD105F11C03012205F50475CF
:1032500000E0DC68012C18BFDA601433AB42F8D10F
:10326000BFF35F8F0023C6F8A432D6F89C2202F089
:10327000030106EB81010132C6F89C22C1F88C32B1
:10328000F8BD93F8502282F0010283F85022F8BD75
:1032900005F1300405F50975082019F01FF854F8F8
:1032A000143C80F30300984218BF44F8140C143403
:1032B000AC42F1D1D4E700BF5C0900200378012BB8
:1032C000438817D0042B00D07047304A3048002381
:1032D000C15842F8041F1833B3F5587FF8D12D4B6D
:1032E0009A6E02F0030103EB8101013201209A661C
:1032F00088657047013B072BE6D801A252F823F0FE
:103300006F3300003D330000C93200002D33000050
:10331000C9320000C9320000C93200002133000068
:103320001C4B1A7882F001021A707047194B93F8FF
:10333000282082F0010283F82820704716494A6944
:10334000531E032BA8BF03236FF002008342B8BFB4
:1033500003469342B8D00F4A4B61936E03F00301CA
:1033600002EB8101013300209366886570470A49AA
:103370004A69531C032BA8BF03236FF0020083424A
:10338000B8BF03469A42E6D19EE700BF4C22002018
:10339000509B0200ECEFFF1F502200200378012B0E
:1033A00000D070474388013B072BFAD801A252F89E
:1033B00023F000BF01340000ED330000A333000010
:1033C000E1330000A3330000A3330000A333000067
:1033D000D5330000104B1A7982F001021A71E0E730
:1033E0000D4B1A78AAB901221A7070470B490A6866
:1033F000A2F1200383F308039A42D2D00B607047F6
:1034000006490A6802F1200383F308039A42F5D1C2
:10341000C7E700221A707047A8EBFF1F080C0020B6
:103420002DE9F00F6B496C4C4FF0000C82B08046D8
:1034300001F58469654608EB0C07684BA1F84C5010
:103440003846002201971E7D062E15D8DFE806F0CB
:1034500096AA857D6C040400D0F800B05E68A1F8DF
:103460004C50B34503DB9E68B345B8BF5E468F58EA
:10347000B74218BF8E5004301833A34202F1040241
:10348000E1D1019F8B6981F8AC50C01B4FF0010A5C
:103490004FF002024FF0030781F8ADA081F8AE2093
:1034A00081F8AF704FF0040A4FF005024FF00607A5
:1034B000844481F8B0A081F8B12081F8B270002B6B
:1034C00000F084800722082381F8B32081F8B4300B
:1034D00009220A2381F8B52081F8B6300B220C238B
:1034E00081F8B83081F8B72001F1B9030D260E201C
:1034F0005A1A1E7058700F2610209E70D870A63A67
:10350000112612201E71587101F5847141F8602C4A
:10351000494590D1324BD3F8CC206046013A9A61AC
:1035200002B0BDE8F00F7047A1F84C50B0F800B001
:103530005E68B34503DB9E68B345B8BF5E468F58EF
:10354000B74218BF8E50023096E7A1F84C50B0F940
:1035500000B05E68B345F2DBEDE7A1F84C5090F89F
:1035600000B05E68B34503DB9E68B345B8BF5E46F6
:103570008F58B74218BF8E5001307DE7B1F84C60CC
:10358000C6B106F00F0BA1F84C505E68B34503DBE3
:103590009E68B345B8BF5E468F58B7423FF46CAFE4
:1035A0008E5069E7A1F84C5090F900B05E68B345C1
:1035B000DEDBD9E790F800B06FEA0B5A6FEA1A5ACF
:1035C0000130A1F84CA04FEA1B1BDEE701F1B30369
:1035D0008CE700BF8C1200202C8A02006488020055
:1035E000681200204249434B00222DE9F003844633
:1035F0008A8615460E4603F59C741F7D062F17D844
:10360000DFE807F04E623B3320040400D0F800905E
:10361000D3F804808D86C14504DB9F68B945B4BFEB
:10362000C846B8468F58474518BF42F80680043050
:103630001833A34202F10402DFD1CCEB0000BDE855
:10364000F00370478D86B0F80090D3F80480C14530
:1036500004DB9F68B945B4BFC846B8468F58474594
:1036600018BF42F806800230E2E78D86B0F900907C
:10367000D3F80480C145F1DBEBE78D8690F800902C
:10368000D3F80480C14504DB9F68B945B4BFC84680
:10369000B8468F58474518BF42F806800130C7E743
:1036A0008F8ECFB107F00F09B586D3F80480C145DE
:1036B00004DB9F68B945B4BFC846B8468F58474534
:1036C000B6D042F80680B3E78D8690F90090D3F823
:1036D0000480C145DDDBD7E790F800906FEA095818
:1036E0006FEA18580130A6F834804FEA1919DCE760
:1036F000080C0020F49E02002DE9F00F4349444DD0
:1037000082B000230193804601F5C0791E46DDF8A2
:1037100004C0404B0E85C44464460022187D062830
:1037200014D8DFE800F04E603E3727040400D4F8D8
:1037300000B058680E85834503DB98688345B8BFA1
:1037400058468F58874218BF885004341833AB420C
:1037500002F10402E2D1DDF804A0CCEB04046031F4
:10376000A2444945CDF804A0D1D1504602B0BDE8ED
:10377000F00F70470E85B4F800B05868834503DB3E
:1037800098688345B8BF58468F58874218BF8850FD
:103790000234DBE70E85B4F900B058688345F3DBEB
:1037A000EEE70E8594F800B05868834503DB98680F
:1037B0008345B8BF58468F58874218BF8850013498
:1037C000C4E7088DB0B100F00F0B0E855F68BB45F4
:1037D00004DB98688345B4BF5F4607468858B84203
:1037E000B4D08F50B2E70E8594F900B05868834585
:1037F000E1DBDCE794F800B06FEA0B5A6FEA1A5A83
:103800000134A1F828A04FEA1B1BDFE718EAFF1FCD
:10381000E4870200F4860200F0B4032826D8DFE82B
:1038200000F002270202334BDA690227032604253F
:10383000052406200721BA4283F8787283F879625A
:1038400083F87A5283F87B4283F87C0283F87D12F6
:1038500031D0B24217D0012A3FD003F27E20264A4F
:103860002649821A501EC3F87422C860F0BC704703
:10387000234A224B118F5187002283F848201A7166
:10388000DA62F0BC70471420102711261225132489
:103890001521162283F8820283F87E7283F87F62F4
:1038A00083F8805283F8814283F8831283F884225C
:1038B00003F28520D3E70D200B250C240E210F22C7
:1038C00083F8800283F87E5283F87F4283F8811266
:1038D00083F8822203F28320C1E7082009210A220B
:1038E00083F87E0283F87F1283F8802203F281201E
:1038F000B5E700BF90E6FF1F08E9FF1FB4080020EE
:1039000020E4FF1F2DE9F0033A4D3B4A00232B84AE
:1039100081461E4604462F46117D062914D8DFE84D
:1039200001F04458342D1D040400D4F800C051683F
:103930002E848C4503DB91688C45B8BF6146E858FE
:10394000884218BFD95104340433202B02F11802E5
:10395000E2D1C9EB0400BDE8F00370472E84B4F84F
:1039600000805168884503DB91688845B8BF4146AF
:10397000E858884218BFD9510234E5E72E84B4F9DB
:10398000008051688845F3DBEEE72E8494F80080D0
:103990005168884503DB91688845B8BF4146E858BF
:1039A000884218BFD9510134CEE7298CC1B101F04A
:1039B0000F003E84D2F804C0604504DBD2F808C092
:1039C0006045B8BF8446E9586145BDD043F807C09B
:1039D000BAE72E8494F9008051688845DFDBDAE786
:1039E00021786FEA015C6FEA1C5C0134A7F820C003
:1039F0000809DFE790F8FF1FE4A002002DE9F00FAF
:103A00008E4982B091F834300193042781F89C707C
:103A1000019F4FF0010A4FF002094FF003084FF0E9
:103A2000000B05260625072408220923844681F871
:103A300099A00A204FF00B0A81F89A9081F89B8098
:103A40004FF00C094FF00D08022F81F898B081F863
:103A50009D6081F89E5081F89F4081F8A02081F8F8
:103A6000A13081F8A20081F8A3A081F8A49081F888
:103A7000A58040F0E0804FF00E0B4FF00F0A4FF0A2
:103A800010094FF0110812271326142515241620AB
:103A90001722182381F8A6B081F8A7A04FF0190BC0
:103AA0004FF01A0A81F8A89081F8A9804FF01B09FD
:103AB0004FF01C0881F8AA7081F8AB601D271E2604
:103AC00081F8AC5081F8AD401F25202481F8AE006C
:103AD00081F8AF202120222281F8B030232381F801
:103AE000B84081F8B1B081F8B2A081F8B39081F804
:103AF000B48081F8B57081F8B66081F8B75081F86C
:103B0000B90081F8BA2081F8BB3001F1BC044C4EF9
:103B10004C4D4D4BA41B0020671E0246C1F894403B
:103B2000AF60A1F890000546983E03F558746046D2
:103B30001F7D062F18D8DFE807F053693F362204AF
:103B40000400D0F80090D3F80480A1F89050C1454B
:103B500004DB9F68B945B4BFC846B8468F5847458F
:103B600018BF42F8068004301833A34202F1040261
:103B7000DED1CCEB000002B0BDE8F00F7047A1F839
:103B80009050B0F80090D3F80480C14504DB9F68E2
:103B9000B945B4BFC846B8468F58474518BF42F824
:103BA00006800230E0E7A1F89050B0F90090D3F819
:103BB0000480C145F0DBEAE7A1F8905090F800904E
:103BC000D3F80480C14504DB9F68B945B4BFC8463B
:103BD000B8468F58474518BF42F806800130C3E702
:103BE000B1F89070DFB107F00F09A6F89050D3F844
:103BF0000480C14504DB9F68B945B4BFC846B846D8
:103C00008F584745B0D042F80680ADE7A1F89050F4
:103C100090F90090D3F80480C145DADBD4E790F83E
:103C200000906FEA09586FEA18580130A6F89080A2
:103C30004FEA1919DBE701F1A60468E750220020DA
:103C4000E8220020ECEFFF1F509B02002DE9F00F4F
:103C50007149724C4FF0000C82B0804601F5FC694E
:103C6000654608EB0C076E4BA1F8645038460022FD
:103C700001971E7D062E15D8DFE806F08EA27D7511
:103C800064040400D0F800B05E68A1F86450B34545
:103C900003DB9E68B345B8BF5E468F58B74218BF76
:103CA0008E5004301833A34202F10402E1D1019F87
:103CB0000B7E81F8D851C01B4FF0050A4FF0060269
:103CC000844481F8D9A181F8DA21002B40F08C805E
:103CD00001F2DB134FF00A021A7091F82820002A33
:103CE00000F098800B200C2258709A700333132632
:103CF00014201E705870152616209E70D870172636
:103D000018201E7158710D260E205A1A9E71D871F6
:103D10000F2610201E725872A2F5E672112612208C
:103D20009E72D87201F5FC7141F8242C494598D156
:103D30003C4BD3F8F8216046013A9A6102B0BDE8E5
:103D4000F00F7047A1F86450B0F800B05E68B3455A
:103D500003DB9E68B345B8BF5E468F58B74218BFB5
:103D60008E5002309EE7A1F86450B0F900B05E6852
:103D7000B345F2DBEDE7A1F8645090F800B05E685F
:103D8000B34503DB9E68B345B8BF5E468F58B74264
:103D900018BF8E50013085E7B1F86460C6B106F0F7
:103DA0000F0BA1F864505E68B34503DB9E68B34512
:103DB000B8BF5E468F58B7423FF474AF8E5071E77C
:103DC000A1F8645090F900B05E68B345DEDBD9E736
:103DD00090F800B06FEA0B5A6FEA1A5A0130A1F856
:103DE00064A04FEA1B1BDEE74FF0070381F8DB31CD
:103DF00001F5EF734FF00A024FF008074FF0090A80
:103E000081F8DC7181F8DDA11A7091F82820002A70
:103E10007FF468AF01336AE7A0F0FF1F24C60200F9
:103E2000CCC302007CF0FF1F2DE9F00F032800F245
:103E30008C80DFE800F0028D0202564B93F83420AC
:103E40000024012002214FF0030B4FF0040A4FF031
:103E500005094FF006084FF0070C082709260A2528
:103E600083F8984083F899000B240C2083F89A106B
:103E7000022A4FF00D0183F89BB083F89CA083F8D1
:103E80009D9083F89E8083F89FC083F8A07083F88C
:103E9000A16083F8A25083F8A34083F8A40083F8BC
:103EA000A51074D14FF00E094FF00F084FF0100C11
:103EB00011271226132514241520162117224FF03E
:103EC000180B4FF0190A83F8A69083F8A7804FF0DB
:103ED0001A094FF01B0883F8A8C083F8A9704FF0A7
:103EE0001C0C1D2783F8AA6083F8AB501E261F25E3
:103EF00083F8AC4083F8AD002024212083F8AE1075
:103F000083F8AF202221232283F8B90083F8B0B0D0
:103F100083F8B1A083F8B29083F8B38083F8B4C07B
:103F200083F8B57083F8B66083F8B75083F8B8406B
:103F300083F8BA1083F8BB2003F1BC00164A174976
:103F4000821A501EC3F894208860BDE8F00F7047B5
:103F5000104A124B127C12485C6D83F8342002EB3D
:103F600042018900002A00EB01020CBF80260026D6
:103F70004558506891689D6346EA042400225C65B8
:103F8000D86319641A701A63BDE8F00F704703F123
:103F9000A600D3E750220020E8220020ECEFFF1F0C
:103FA000948602002DE9F007814C824A0023238386
:103FB00084461D462646117D062916D8DFE811F0F5
:103FC000C000D700B500A5009A00070007000168EF
:103FD00057682583B94203DB9768B942B8BF0F46DB
:103FE000E158B94218BF9F5104300433182B02F135
:103FF0001802E0D17049CCEB000001F5FA780025F9
:104000000CEB00066D4A0D8234460023177D062F07
:1040100017D8DFE807F02367544C39040400D4F8BC
:1040200000A0D2F804900D82CA4504DB9768BA4517
:10403000B4BFD146B946CF584F4518BF41F8039099
:1040400004340433102B02F11802DFD11431A41B05
:1040500041452044D4D1BDE8F00770470F8A002FB6
:1040600000F0958007F00F0A0D82D2F80490CA453F
:1040700004DB9768BA45B4BFD146B946CF584F451F
:10408000DFD041F80390DCE70D82B4F800A0D2F84D
:104090000490CA4504DB9768BA45B4BFD146B94617
:1040A000CF584F4518BF41F803900234C9E70D823D
:1040B000B4F900A0D2F80490CA45F1DBEBE70D8219
:1040C00094F800A0D2F80490CA4504DB9768BA457A
:1040D000B4BFD146B946CF584F4518BF41F80390F9
:1040E0000134AEE70D8294F900A0D2F80490CA45DD
:1040F000F1DBEBE7258301885768B9420BDAE15819
:10410000B94218BF9F5102306FE72583B0F9001004
:104110005768B942F3DB9768B942B8BF0F46E15818
:10412000B94218BF9F5102305FE725830178576875
:10413000B94222DAE158B94218BF9F51013054E721
:10414000218B81BB01786FEA01576FEA1757013065
:10415000378309095768B94203DB9768B942B8BF8A
:104160000F46E158B9423FF440AF9F513DE72583E8
:1041700090F900105768B942DCDB9768B942B8BFC4
:104180000F46E158B94218BF9F5101302DE794F80E
:1041900000A06FEA0A596FEA19590134A1F810908A
:1041A0004FEA1A1A61E701F00F013583D2E700BF29
:1041B0005C09002044A20200780900209CC2020091
:1041C0007849CB692DE9F0074FF002080327042650
:1041D0000525062407224345844681F8788281F824
:1041E000797281F87A6281F87B5281F87C4281F899
:1041F0007D2200F0C580BB4200F0AA80012B00F0B8
:104200008F8001F27E24684EDFF8A481674BA41BE7
:104210000020651E0246C1F87442C8F80C50A1F88F
:104220005C000546A6F51E7603F50A7460461F7D00
:10423000062F18D8DFE807F05E5541382404040043
:10424000D0F800A0D3F80490A1F85C50CA4504DB74
:104250009F68BA45B4BFD146B9468F584F4518BF7D
:1042600042F8069004301833A34202F10402DED172
:104270000B68C8F80030CCEB0000BDE8F0077047D1
:10428000A1F85C50B0F800A0D3F80490CA4504DB54
:104290009F68BA45B4BFD146B9468F584F4518BF3D
:1042A00042F806900230DEE7A1F85C50B0F900A0B9
:1042B000D3F80490CA45F0DBEAE7A1F85C5090F827
:1042C00000A0D3F80490CA4504DB9F68BA45B4BF88
:1042D000D146B9468F584F4518BF42F80690013075
:1042E000C1E7A1F85C5090F900A0D3F80490CA454A
:1042F000F0DBEAE7B1F85C70F7B107F00F0AA6F857
:104300005C50D3F80490CA4504DB9F68BA45B4BF3B
:10431000D146B9468F584F45A5D042F80690A2E73E
:10432000082009220A2381F87E0281F87F2281F881
:10433000803201F2812466E790F800A06FEA0A5902
:104340006FEA19590130A6F85C904FEA1A1AD8E7BB
:10435000132410271126122514201522162381F864
:10436000814281F87E7281F87F6281F8805281F803
:10437000820281F8832281F8843201F2852442E7A7
:104380000C240B250D200E220F2381F87F4281F88B
:104390007E5281F8800281F8812281F8823201F216
:1043A000832430E790E6FF1F08E9FF1F6CC7FF1F5B
:1043B000B40800203A4A3B4B2DE9F00F1668DFF8AD
:1043C000E880DFF8E8A0DFF8E89003F1B00C53F8DC
:1043D000242C53F82C0C002A51D053F8181C53F8F5
:1043E000204C3C310AFB04F4A14243F8181C53F85A
:1043F000141C21BF0024C1F1010143F8184C43F8FB
:10440000141C01FB0200033000EB400053F8281C91
:1044100013F80C2C440214EBC1144FEA80053CD471
:10442000B4F5705F30DC89FB040B02EB8207E01708
:10443000C0EB2B2002EB4707A0EB800B074414EBEB
:104440004B2436F817000BD0013736F817703F1A97
:1044500007FB04F489FB04B7E417C4EB27242044CA
:10446000243D2944C90143F8101C2C33634580F3D3
:10447000100048F82200AAD1BDE8F00F704743F8B9
:10448000182C43F8142CBEE70A2402EB820002EB3E
:104490004000204436F81000E2E70024F5E700BFB2
:1044A0007CDFFF1F542300206CDFFF1F40420F0002
:1044B000ABAAAA2A2DE9F00F944A95480023C158C7
:1044C00042F8041F1833B3F5587FF8D1914A92F897
:1044D00034500020012102234FF0030B4FF0040A57
:1044E0004FF005094FF006084FF0070C0827092682
:1044F0000A2482F8980082F899100B200C2182F887
:104500009A30022D4FF00D0382F89BB082F89CA0E8
:1045100082F89D9082F89E8082F89FC082F8A070F9
:1045200082F8A16082F8A24082F8A30082F8A41069
:1045300082F8A5304BD14FF00E0B4FF00F0A4FF021
:1045400010094FF011084FF0120C132714261524F0
:1045500016201721182382F8A6B082F8A7A04FF0E2
:10456000190B4FF01A0A82F8A89082F8A9804FF030
:104570001B094FF01C0882F8AAC082F8AB704FF0FC
:104580001D0C1E2782F8AC6082F8AD401F26202447
:1045900082F8AE0082F8AF102120222182F8B030DC
:1045A000232382F8B1B082F8B2A082F8B39082F8E7
:1045B000B48082F8B5C082F8B67082F8B76082F82D
:1045C000B84082F8B90082F8BA1082F8BB30524B7A
:1045D0005048002108244FF001084FF0040C072731
:1045E000022D19705960D9601961D96283F83410AD
:1045F000996319635965196783F87410996783F88B
:104600007D1083F87E1083F8801083F8811083F882
:10461000831083F8841083F8861083F8871083F85A
:10462000891083F88A1083F88C1083F88D1000F1BC
:10463000980683F82880C3F83CC01F6483F87C4048
:1046400083F87F4083F8824083F8854083F8884070
:1046500083F88B404FF0230156D14FF00E0B4FF0F3
:104660000F0A4FF010094FF011084FF0120C1327EA
:104670001425152480F8BB1080F8A6B016214FF041
:10468000170B80F8A7A080F8A8904FF0180A4FF0F9
:10469000190980F8A98080F8AAC080F8AB7080F86A
:1046A000AC5080F8AD4080F8AE1080F8AFB080F824
:1046B000B0A080F8B1904FF01A084FF01B0C1C27E7
:1046C0001D251E241F214FF0200B4FF0210A4FF013
:1046D000220980F8B28080F8B3C080F8B47080F806
:1046E000B55080F8B64080F8B71080F8B8B080F8C0
:1046F000B9A080F8BA90BC30801B411EC2F894006B
:104700009960BDE8F00F7047A630F5E74C22002015
:10471000509B020050220020ECEFFF1F4388102B1B
:1047200030B421D0202B01D030BC7047254B1A79F2
:1047300022B31B69244A808852F823100C2BF3D82B
:10474000224C03EB430504EBC50501FA80F06C68CD
:10475000A04203DBAC68A042B8BF0446A142E3D04C
:1047600042F8234030BC7047164B174A1B788088AC
:1047700052F823100C2BE3D930BC7047B0F9042059
:1047800018699C681044A04212DBD9688842A8BF0F
:10479000084659691861002A11440A4D0ADB0129AB
:1047A00004DDE9688842ACBF032102215961BBE7FF
:1047B0002046EEE70129F9DC8442ACBF002101214B
:1047C000F4E700BFA8EBFF1F080C0020F49E0200D6
:1047D0004388102B30B421D0202B01D030BC70473F
:1047E000274B1A7C22B39968DA69808801EB410172
:1047F00003EB41132833092A53F82210EED8214C39
:1048000002EB420504EBC50501FA80F06C68A0429A
:104810002ADAA142E2D043F82240DFE7184BB0F990
:1048200004109A680A4482F302029A6030BC70470E
:10483000B0F90420D8695C691044A04212DB996980
:104840008842A8BF0846196AD861002A11440C4D55
:104850000FDB012904DDA9698842ACBF03210221D5
:104860001962BBE72046EEE7AC68A042B8BF044639
:10487000CFE70129F4DC8442ACBF00210121EFE73E
:10488000F0E9FF1FF486020070B4032819D8DFE8AE
:1048900000F0261A262603F1C3021226032500245F
:1048A000167055709470415C00294FD0012949D091
:1048B0002A44D11ABE390224012014705070C3F862
:1048C000BC1070BC7047234A234B118F51870022C4
:1048D00083F864201A71DA629A6470BC70471E4BC8
:1048E0001E481B684FF4057101FB03F143180024B7
:1048F0005A6B83F86B40052608250D2483F8C060A9
:1049000083F8C15083F8C240032AC4D8DFE802F01C
:10491000080E14020C2283F8C32003F1C402BCE782
:10492000092283F8C32003F1C402B6E70A2283F800
:10493000C32003F1C402B0E70B2283F8C32003F1C4
:10494000C402AAE70721D1700432B2E70421D17072
:104950000A44AEE720E4FF1FF4010020C4EBFF1F70
:104960004388102B30B42ED0202B01D030BC7047A0
:10497000554B93F84C22002A34D093F86422002A35
:104980006ED0D3F84822D3F81812D3F8703280884A
:1049900002EB820201EB8202032B52F82310E5D8CE
:1049A0004A4C03EB430504EBC50501FA80F06C6843
:1049B000A04203DBAC68A042B8BF0446A142D5D0F8
:1049C00042F82340D2E7404BB0F90410D3F8482214
:1049D0000A44182AA8BF182222EAE272C3F8482221
:1049E00030BC704793F85022CAB1D3F85C2280885B
:1049F00053F82210052AB9D8354C02EB420504EBD6
:104A0000C50501FA80F06C68A04203DBAC68A042E7
:104A1000B8BF0446A142A9D043F82240A6E7B0F9A6
:104A20000420D3F85C12D3F854421144A14238DB7D
:104A3000D3F858028142B8BF0846D3F86012C3F8D1
:104A40005C02002A1144204D2FDB012905DDD5F839
:104A500058128842ACBF03210221C3F8601285E7D7
:104A6000B0F90420D3F87012D3F868421144A1427F
:104A700019DBD3F86C028142B8BF0846D3F8741230
:104A8000C3F87002002A11440F4D15DB012905DD22
:104A9000D5F86C128842ACBF03210221C3F874120E
:104AA00064E72046C9E72046E8E70129D5DC8442CF
:104AB000ACBF00210121D0E70129EFDC8442ACBF6B
:104AC00000210121EAE700BF5C0900209CC202002E
:104AD00044A202004388102B30B41CD0202B01D0FC
:104AE00030BC70472D4B1A797AB31B692C4A8088E9
:104AF00052F82310072BF3D82A4C03EB430504EBA1
:104B0000C50501FA80F06C68A0423ADAA142E7D00C
:104B100042F82340E4E7214B21491B7853B14A680E
:104B2000B0F90430134483F308039A42D8D04B60A1
:104B300030BC70470A68B0F90430134483F30803AB
:104B40009A42CDD00B6030BC7047B0F90420186990
:104B50009C681044A04212DBD9688842A8BF08466E
:104B600059691861002A11440C4D0FDB012904DD3D
:104B7000E9688842ACBF032102215961B0E72046B1
:104B8000EEE7AC68A042B8BF0446BFE70129F4DCF9
:104B90008442ACBF00210121EFE700BFAC0200203E
:104BA00090F8FF1FE4A002004388102B30B437D0E8
:104BB000202B01D030BC7047334A1379002B3FD0F3
:104BC0001368848811692C2000FB032318335A18BA
:104BD00092F82820032A53F8220011D82B4902EB1F
:104BE000420501EBC50500FA84F469688C4203DBD9
:104BF000A9688C42B8BF2146884218BF43F82210EA
:104C00000025012402200321042283F8285083F880
:104C1000294083F82A0083F82B105A6230BC704771
:104C2000194BB0F904101A680A4482F302022C21CD
:104C300001FB02311A60CA6B013ADA6030BC70477E
:104C4000B0F90430106994681844A04212DBD168AE
:104C50008842A8BF084651691061002B19440A4DCB
:104C60000ADB012904DDE9688842ACBF0321022187
:104C700051619FE72046EEE70129F9DC8442ACBF91
:104C800000210121F4E700BF1023002058A30200F7
:104C90004388102B2DE9F0035FD0202B02D0BDE814
:104CA000F0037047534B1A7C002A69D09A68D9697F
:104CB000848802EB421203EBC2022432114491F8C1
:104CC000AC10122952F8210074D90629E7D1906955
:104CD00082F8B2104FF0000C0127022603250424AD
:104CE000052182F8ACC082F8AD7082F8AE6082F81F
:104CF000AF5082F8B04082F8B110002870D00C217B
:104D00000727082609250A240B2082F8B81082F804
:104D1000B37082F8B46082F8B55082F8B64082F879
:104D2000B70002F1B901881AA0F1A7044FF00D09EC
:104D30004FF00E084FF00F0C102711261225A63841
:104D400081F8009081F8018081F802C0CF700E7167
:104D50004D71C2F8A8009C61A1E7264BB0F9041080
:104D60009A680A4482F3020202EB421103EBC1018A
:104D70009A60D1F8CC20013A9A61BDE8F0037047FF
:104D8000B0F90420D8695C691044A04221DB99691C
:104D90008842A8BF0846196AD861002A1144154DF7
:104DA00021DB012904DDA9698842ACBF032102216E
:104DB000196274E7104D01EB410605EBC60600FAD7
:104DC00084F47568AC4206DAA84218BF42F8215054
:104DD0007BE72046DFE7B568AC42B8BF2546F3E77E
:104DE00002F1B3019FE70129E2DC8442ACBF00215C
:104DF0000121DDE768120020648802002DE9F04FF0
:104E0000654E8BB096F83490002306ACF218624FD2
:104E1000526CE2500433102BF8D1604DDFF890A1B2
:104E2000DFF890810C2228460021802314F02CFC0E
:104E3000069B78338AFB0321DA17C2EB610202EB8F
:104E40004202A3EB8203284658F8231002236B602A
:104E5000AB6014F009FF6B68514A063352F8291011
:104E60006B60284614F000FF97F828206B6809AFA4
:104E70000633002A00F08280A94654F8042F4748E0
:104E800078328AFB021ED117C1EB6E0101EB4101A2
:104E9000A2EB8102063358F822106B6014F0E4FE96
:104EA000BC4202D0D9F80430E7E7F2683469DFF891
:104EB00008A136780596141BE31C039204930F2671
:104EC000039936480AEB04030A1B574293F89830BB
:104ED0005741344A5AF8238003EB430302EBC30BD8
:104EE000059BDBF80C10002F06F102094FF00202BF
:104EF00008BF0023C5F808906A60029314F0B4FE5E
:104F0000DBF81020C5F808907E21696006F10C09D5
:104F100052B352F82810214814F060FF029A72B977
:104F20003FB10B23009332461C480021802314F02C
:104F30003FFB049A0134A2421DDB4E46C0E7DBF87A
:104F40000820DBF80430904513D0174A511D9845CE
:104F500018BF11460B46009310485B21A9F10B02C4
:104F6000052314F033FCDBE70C48414614F044FE03
:104F7000D4E70E4BEFE70BB0BDE8F08FA84654F82E
:104F8000041F064806336B6015F000F8BC428CD055
:104F9000D8F80430F3E700BFECEFFF1F702C0020BF
:104FA000EC860200509B0200B0410200BA410200B0
:104FB000ABAAAA2AF8510200502200202DE9F04F96
:104FC000794C7A4D87B00C2220460021802314F0C2
:104FD0005BFB2B78764803EB430300EBC30302260D
:104FE000D96866602046A66014F03EFE2A787148B3
:104FF000A66050F822107E232046636014F0FCFD6A
:1050000029696B692D790595CB1ADA1C03910492F5
:10501000112510260398DDF814A0C21A57425741F3
:10502000002F644A08BF4FF0000A711E022B029144
:1050300003F1010852F823904CD05D48A56003EBC2
:10504000430300EBC30B0222DBF80C1056486260EE
:1050500014F00AFEDBF81020A5607E21616062B3C7
:1050600052F82910504814F0B9FEBAF1000F11D1CE
:105070003FB10B230093029A4B480021802314F088
:1050800097FA0498404506F10C0605F10C051CDB67
:105090004346BFE7DBF80820DBF80410914517D042
:1050A000454B5A1F894518BF134600933E485A2165
:1050B0003246052314F08AFBDAE73B48494614F0F0
:1050C0009BFDBAF1000FD3D0E4E707B0BDE8F08F45
:1050D0003A4BEAE74FEA092139483A4A202301F4DA
:1050E0007F41FCF745FFF01D364A5F234FF0010872
:1050F000844632F802EB2068ACEB5E3E4FEAEE01EC
:1051000003EBC1110EF0070E10F801B008FA0EFE05
:105110004BEA0E0E00F801E02B498A4203F101032D
:10512000E7D12148294A85600223D168436014F001
:105130009BFD26481C4903698D6057224A6043B392
:1051400053F82910184814F049FEBAF1000F03D1A2
:10515000A7B94FF0030894E71C4B9A68596891452A
:105160001FD0154A531F894508BF134600930E48A8
:105170005A213246052314F029FBE9E70B2300935B
:10518000029A09480021802314F012FA4FF0030814
:1051900077E70548494614F02FFDBAF1000FD7D044
:1051A000DAE7064BE2E700BF702C0020A8EBFF1FF8
:1051B000F49E0200080C0020B5410200BA41020032
:1051C000400C002064020020A4020020249F020062
:1051D0002DE9F04F4A4889B000210C228023054672
:1051E00014F052FA4126062402276C6031464448E6
:1051F000AF60203414F0F6FC0136862CF6B2F4D100
:10520000404E3F48B1680B23490100930022202300
:1052100014F0CEF9F169B368346A327C059103EB7E
:1052200043130C1B06EBC306E31C06F1240B079289
:1052300006930F26059932480BEB04030A1B93F8DB
:10524000AC3031495BF823805742574103EB4302AE
:1052500001EBC20A079ADAF80C10073B002F08BFCF
:105260000022052B8CBF0223042306F102096B6088
:10527000C5F808908CBF002302230493039214F016
:10528000F3FCDAF81030C5F808907E21696006F169
:105290000C0953B353F82810194814F09FFD039AD2
:1052A0007AB947B104990B2000903246C1F18003CE
:1052B000134814F07DF9069A0134A2421CDB4E46D5
:1052C000B8E7DAF80830DAF80420984512D00F4B26
:1052D000591D904508BF0B46009309485B21A9F171
:1052E0000B02052314F072FADBE70548414614F07F
:1052F00083FCD4E7064BEFE709B0BDE8F08F00BFB1
:10530000702C00206812002064880200B041020066
:10531000BA4102002DE9F04F464887B000210C2227
:105320008023044614F0B0F9412606250227656063
:1053300031464048A760203514F054FC0136862DD4
:10534000F6B2F4D13C4E3B48B1680B2349010093BF
:105350000022202314F02CF9F0690390B268307C0D
:10536000336A05900398354902EB4202C31A06EBF3
:10537000421A0AEB830A03EB430C1D4603330493E2
:105380000AF1240A01EBCC0B0F26039ADBF80C1070
:1053900028485AF8048F531B5F425F41059A06F173
:1053A00002090223002F08BF0022C4F8089063609E
:1053B000029214F059FCDBF81030C4F808907E22F9
:1053C000626006F10C095BB353F82810194814F019
:1053D00005FD029B83B93FB10B230093324615486C
:1053E0000021802314F0E4F804990135A9420BF15F
:1053F000180B1ADB4E46C8E7DBF80830DBF8042050
:10540000984515D00E4B581D904508BF0346009394
:1054100008485B21A9F10B02052314F0D7F9DAE75C
:105420000448414614F0E8FBD3E707B0BDE8F08F2D
:10543000044BECE7702C0020F0E9FF1FF48602001B
:10544000B0410200BA4102002DE9F04F534C544ED6
:10545000544D87B00C2280232046002114F014F90B
:105460000227204650496760A76014F0FDFB318891
:10547000D6F8AC30013109040912013901EB0313EC
:10548000204683F31001091214F002FC4223204647
:1054900046496360A76014F0E7FBB188D6F8B030E6
:1054A000013109040912013901EB0313204683F38A
:1054B0001001091214F0ECFB29780B2389010093E9
:1054C00000224023204614F073F829696B69384A9A
:1054D0002D790595CB1A03F1FF3A03EB430C1D46DA
:1054E000033306EB8A0A0391049302EBCC0B0F26DD
:1054F000039ADBF80C1029485AF8048F531B5F42BB
:105500005F41059A002F06F102094FF0020308BF20
:1055100000220292C4F80890636014F0A5FBDBF847
:105520001030C4F808907E22626006F10C095BB36B
:1055300053F82810194814F051FC029B83B93FB16D
:105540000B230093324615480021802314F030F8D5
:10555000049A0135AA420BF1180B1ADB4E46C7E735
:10556000DBF80830DBF80420984515D0114B591DA5
:10557000904508BF0B46009308484F21A9F10B0244
:10558000052314F023F9DAE70448414614F034FB0C
:10559000D3E707B0BDE8F08F074BECE7702C002095
:1055A00090F8FF1FAC020020BCA50200C4A50200B9
:1055B000E4A00200B0410200BA4102002DE9F04F20
:1055C000464887B000210C228023044614F05CF882
:1055D000412606250227656031464048A7602035F0
:1055E00014F000FB0136862DF6B2F4D13C4E3B4858
:1055F00031680B23490100930022202313F0D8FFC8
:10560000316975693368327903914FF02C094D1B6C
:1056100009FB0366EB1C06F11809059204930F269B
:1056200003992E4809EB05034A1B574293F828308B
:1056300057412C4A59F8238003EB430302EBC30B79
:10564000059BDBF80C1006F1020A0222002F08BFAE
:105650000023C4F808A06260029314F005FBDBF895
:105660001020C4F808A07E21616006F10C0A6AB31C
:1056700052F82810194814F0B1FB029A72B93FB1E0
:105680000B230093324615480021802313F090FF2E
:10569000049A0135AA4216DB5646C1E7DBF808201A
:1056A000DBF80430904516D00F4A511D984518BFBD
:1056B00011460B46009309485B21AAF10B02052312
:1056C00014F084F8DBE707B0BDE8F08F03484146EB
:1056D00014F092FAD1E7054BECE700BF702C0020E4
:1056E0001023002058A30200B0410200BA4102007A
:1056F0002DE9F04FDFF88092DFF880A2984B994AAD
:10570000CAF81C308FB009F1E000099009F59270D9
:105710000A9009F52B70079009F52C70089009F292
:105720007D200C9009F27E200D9009F51D7000235C
:105730002C2106908C4CCAF80C1009F51F7009F149
:10574000D40B0B904D46CAF800308AF80430CAF8E2
:105750000830CAF81030CAF81430CAF81830AAF85D
:105760002830CAF82C30CAF830308AF834308AF839
:1057700035309846CAF82420CAF820202A1F002372
:10578000E15842F8041F1833B3F5876FF8D1764912
:10579000CB6C984503DB0B6D9845B8BF4346EA6870
:1057A0009A4218BFEB60636E984504DB6E4A936EB5
:1057B0009845B8BF43462A6909989A4218BF2B6199
:1057C0006A4BC9EB0B021A44C9EB00036848184442
:1057D000002601274FF0FF310390C5F8B81085F877
:1057E000B67085F8B760A5F8BC60C5F8C06085F8EC
:1057F000C46085F8C56085F8C66085F8C86085F81E
:10580000C96085F8CA6085F8CB6085F8CC6085F8FA
:10581000CD6085F8CE6085F8CF6085F8D06085F8DA
:10582000D16085F8D26085F8D3604FF0100C42F853
:10583000D01C4FF0800E039902F8D4CC02F8D3ECC0
:1058400000234FF4803241E9382341E9342342A355
:10585000D3E9002305F5807041E9362312F048FAB8
:105860000A98D5F89030D5F88C10C9EB0002414861
:105870000244A2F5927CA2F59170013B1FFA83FECF
:10588000A2F58F73ACF800600780A2F58D7C88B21A
:105890001880A2F58E73ACF800E07144A2F5907CFC
:1058A0001980A2F58C7EA2F58B71ACF80000A2F5F0
:1058B00087734FF0030C6FF48670AEF800C01018B9
:1058C0000F80A2F58A7EA2F58871A2F5867CA2F2ED
:1058D0000F121F7005F5A07307708CF80070184642
:1058E000CEF800600E7016700493FCF701F8B5F85E
:1058F00008C02868A5F8BCC0C5F8B800CDF814C029
:10590000FBF704FE049BDDF814C00146083131F9B1
:10591000082C184651F8043CCDF800C0FBF7FEFFF8
:1059200006990B9A0E6016702B68042B00F0D2803B
:105930000C980D99077002230B7005F27F23032248
:105940001A702A7B043A032A00F2C780DFE802F0CB
:10595000B2A88C18AFF3008098999903000000005A
:10596000CCA5020058E3FF1FACCFFF1F9417002007
:10597000A0170020E4170020C016002020E9FF1F18
:105980001F21202259709A7021212222D9701A7168
:105990002321242259719A7127212B22D9711A723D
:1059A0002521262259729A7228212922D9721A7326
:1059B0002A212C2259739A730F3304221A702A7CDD
:1059C000032A6BD80521062259709A7003335F1B96
:1059D0006FF41E72174408221A70072109225970A9
:1059E0009A70079BC5F878720026314605F52E702F
:1059F00014221E601AF058FE0C980D99099A00F5B1
:105A0000347001F534710C900D910A98069902F5E5
:105A1000347200F5347001F5347109920A900B9AD2
:105A200007980691089908F101084FF490530B600C
:105A300002F5347200F5347001F53471B8F1040FD9
:105A4000C5F8B4620BF5347B0B920790089105F50D
:105A500034757FF493AE224AD2F87832013BCAF80B
:105A60000C300FB0BDE8F08F1521162259709A70D6
:105A700017211822D9701A7119211A2259719A7195
:105A80001B211C22D9711A721D211E229A72597271
:105A90000B3304221A702A7C032A93D9013396E728
:105AA0001121122259709A7013211422D9701A717F
:105AB000053382E70A220C215A700D229970DA70A0
:105AC0000B210F2219715A7110210E229971DA716E
:105AD000083372E705F27D2331E701336DE700BF3C
